{
    "_format": "hh-sol-artifact-1",
    "contractName": "ERC1155ActivitiesDoubleMinter",
    "sourceName": "contracts/ERC1155ActivitiesDoubleMinter.sol",
    "abi": [
        {
            "inputs": [
                {
                    "internalType": "address",
                    "name": "erc1155Contract",
                    "type": "address"
                },
                {
                    "internalType": "uint256",
                    "name": "id",
                    "type": "uint256"
                }
            ],
            "stateMutability": "nonpayable",
            "type": "constructor"
        },
        {
            "anonymous": false,
            "inputs": [
                {
                    "indexed": true,
                    "internalType": "address",
                    "name": "previousOwner",
                    "type": "address"
                },
                {
                    "indexed": true,
                    "internalType": "address",
                    "name": "newOwner",
                    "type": "address"
                }
            ],
            "name": "OwnershipTransferred",
            "type": "event"
        },
        {
            "inputs": [],
            "name": "getERC1155CollectionId",
            "outputs": [
                {
                    "internalType": "uint256",
                    "name": "",
                    "type": "uint256"
                }
            ],
            "stateMutability": "view",
            "type": "function"
        },
        {
            "inputs": [],
            "name": "getERC1155Contract",
            "outputs": [
                {
                    "internalType": "address",
                    "name": "",
                    "type": "address"
                }
            ],
            "stateMutability": "view",
            "type": "function"
        },
        {
            "inputs": [
                {
                    "internalType": "address",
                    "name": "to",
                    "type": "address"
                },
                {
                    "internalType": "uint256",
                    "name": "amountNative",
                    "type": "uint256"
                },
                {
                    "internalType": "uint256",
                    "name": "amountERC1155",
                    "type": "uint256"
                }
            ],
            "name": "mintTokens",
            "outputs": [],
            "stateMutability": "nonpayable",
            "type": "function"
        },
        {
            "inputs": [],
            "name": "owner",
            "outputs": [
                {
                    "internalType": "address",
                    "name": "",
                    "type": "address"
                }
            ],
            "stateMutability": "view",
            "type": "function"
        },
        {
            "inputs": [],
            "name": "renounceOwnership",
            "outputs": [],
            "stateMutability": "nonpayable",
            "type": "function"
        },
        {
            "inputs": [
                {
                    "internalType": "address",
                    "name": "newOwner",
                    "type": "address"
                }
            ],
            "name": "transferOwnership",
            "outputs": [],
            "stateMutability": "nonpayable",
            "type": "function"
        }
    ],
    "bytecode": "0x6080604052730200000000000000000000000000000000000001600160006101000a81548173ffffffffffffffffffffffffffffffffffffffff021916908373ffffffffffffffffffffffffffffffffffffffff1602179055503480156200006657600080fd5b506040516200108f3803806200108f83398181016040528101906200008c91906200026d565b620000ac620000a0620000fc60201b60201c565b6200010460201b60201c565b81600260006101000a81548173ffffffffffffffffffffffffffffffffffffffff021916908373ffffffffffffffffffffffffffffffffffffffff160217905550806003819055505050620002b4565b600033905090565b60008060009054906101000a900473ffffffffffffffffffffffffffffffffffffffff169050816000806101000a81548173ffffffffffffffffffffffffffffffffffffffff021916908373ffffffffffffffffffffffffffffffffffffffff1602179055508173ffffffffffffffffffffffffffffffffffffffff168173ffffffffffffffffffffffffffffffffffffffff167f8be0079c531659141344cd1fd0a4f28419497f9722a3daafe3b4186f6b6457e060405160405180910390a35050565b600080fd5b600073ffffffffffffffffffffffffffffffffffffffff82169050919050565b6000620001fa82620001cd565b9050919050565b6200020c81620001ed565b81146200021857600080fd5b50565b6000815190506200022c8162000201565b92915050565b6000819050919050565b620002478162000232565b81146200025357600080fd5b50565b60008151905062000267816200023c565b92915050565b60008060408385031215620002875762000286620001c8565b5b600062000297858286016200021b565b9250506020620002aa8582860162000256565b9150509250929050565b610dcb80620002c46000396000f3fe608060405234801561001057600080fd5b50600436106100625760003560e01c80636831e27214610067578063715018a6146100835780638da5cb5b1461008d57806390475190146100ab578063f2fde38b146100c9578063fddaac44146100e5575b600080fd5b610081600480360381019061007c91906108c8565b610103565b005b61008b6105f0565b005b610095610604565b6040516100a2919061092a565b60405180910390f35b6100b361062d565b6040516100c0919061092a565b60405180910390f35b6100e360048036038101906100de9190610945565b610657565b005b6100ed6106db565b6040516100fa9190610981565b60405180910390f35b600060035490506000600160009054906101000a900473ffffffffffffffffffffffffffffffffffffffff1673ffffffffffffffffffffffffffffffffffffffff1663eb54dae1306040518263ffffffff1660e01b8152600401610167919061092a565b602060405180830381865afa158015610184573d6000803e3d6000fd5b505050506040513d601f19601f820116820180604052508101906101a891906109b1565b905060028114806101b95750600181145b6101f8576040517f08c379a00000000000000000000000000000000000000000000000000000000081526004016101ef90610a61565b60405180910390fd5b6000600260009054906101000a900473ffffffffffffffffffffffffffffffffffffffff1673ffffffffffffffffffffffffffffffffffffffff1663d791eecf30856040518363ffffffff1660e01b8152600401610257929190610a81565b602060405180830381865afa158015610274573d6000803e3d6000fd5b505050506040513d601f19601f8201168201806040525081019061029891906109b1565b905060028114806102a95750600181145b6102e8576040517f08c379a00000000000000000000000000000000000000000000000000000000081526004016102df90610b1c565b60405180910390fd5b6000600160009054906101000a900473ffffffffffffffffffffffffffffffffffffffff1673ffffffffffffffffffffffffffffffffffffffff1663eb54dae1336040518263ffffffff1660e01b8152600401610345919061092a565b602060405180830381865afa158015610362573d6000803e3d6000fd5b505050506040513d601f19601f8201168201806040525081019061038691906109b1565b905060028114806103975750600181145b6103d6576040517f08c379a00000000000000000000000000000000000000000000000000000000081526004016103cd90610bae565b60405180910390fd5b6000600260009054906101000a900473ffffffffffffffffffffffffffffffffffffffff1673ffffffffffffffffffffffffffffffffffffffff1663d791eecf33876040518363ffffffff1660e01b8152600401610435929190610a81565b602060405180830381865afa158015610452573d6000803e3d6000fd5b505050506040513d601f19601f8201168201806040525081019061047691906109b1565b905060028114806104875750600181145b6104c6576040517f08c379a00000000000000000000000000000000000000000000000000000000081526004016104bd90610c40565b60405180910390fd5b600160009054906101000a900473ffffffffffffffffffffffffffffffffffffffff1673ffffffffffffffffffffffffffffffffffffffff16634f5aaaba89896040518363ffffffff1660e01b8152600401610523929190610a81565b600060405180830381600087803b15801561053d57600080fd5b505af1158015610551573d6000803e3d6000fd5b50505050600260009054906101000a900473ffffffffffffffffffffffffffffffffffffffff1673ffffffffffffffffffffffffffffffffffffffff166323a36d2b8987896040518463ffffffff1660e01b81526004016105b493929190610c60565b600060405180830381600087803b1580156105ce57600080fd5b505af11580156105e2573d6000803e3d6000fd5b505050505050505050505050565b6105f86106e5565b6106026000610763565b565b60008060009054906101000a900473ffffffffffffffffffffffffffffffffffffffff16905090565b6000600260009054906101000a900473ffffffffffffffffffffffffffffffffffffffff16905090565b61065f6106e5565b600073ffffffffffffffffffffffffffffffffffffffff168173ffffffffffffffffffffffffffffffffffffffff1614156106cf576040517f08c379a00000000000000000000000000000000000000000000000000000000081526004016106c690610d09565b60405180910390fd5b6106d881610763565b50565b6000600354905090565b6106ed610827565b73ffffffffffffffffffffffffffffffffffffffff1661070b610604565b73ffffffffffffffffffffffffffffffffffffffff1614610761576040517f08c379a000000000000000000000000000000000000000000000000000000000815260040161075890610d75565b60405180910390fd5b565b60008060009054906101000a900473ffffffffffffffffffffffffffffffffffffffff169050816000806101000a81548173ffffffffffffffffffffffffffffffffffffffff021916908373ffffffffffffffffffffffffffffffffffffffff1602179055508173ffffffffffffffffffffffffffffffffffffffff168173ffffffffffffffffffffffffffffffffffffffff167f8be0079c531659141344cd1fd0a4f28419497f9722a3daafe3b4186f6b6457e060405160405180910390a35050565b600033905090565b600080fd5b600073ffffffffffffffffffffffffffffffffffffffff82169050919050565b600061085f82610834565b9050919050565b61086f81610854565b811461087a57600080fd5b50565b60008135905061088c81610866565b92915050565b6000819050919050565b6108a581610892565b81146108b057600080fd5b50565b6000813590506108c28161089c565b92915050565b6000806000606084860312156108e1576108e061082f565b5b60006108ef8682870161087d565b9350506020610900868287016108b3565b9250506040610911868287016108b3565b9150509250925092565b61092481610854565b82525050565b600060208201905061093f600083018461091b565b92915050565b60006020828403121561095b5761095a61082f565b5b60006109698482850161087d565b91505092915050565b61097b81610892565b82525050565b60006020820190506109966000830184610972565b92915050565b6000815190506109ab8161089c565b92915050565b6000602082840312156109c7576109c661082f565b5b60006109d58482850161099c565b91505092915050565b600082825260208201905092915050565b7f7468697320636f6e7472616374206973206e6f7420617574686f72697a65642060008201527f746f206d696e74206e617469766520746f6b656e000000000000000000000000602082015250565b6000610a4b6034836109de565b9150610a56826109ef565b604082019050919050565b60006020820190508181036000830152610a7a81610a3e565b9050919050565b6000604082019050610a96600083018561091b565b610aa36020830184610972565b9392505050565b7f7468697320636f6e7472616374206973206e6f7420617574686f72697a65642060008201527f746f206d696e74204552433131353520746f6b656e7300000000000000000000602082015250565b6000610b066036836109de565b9150610b1182610aaa565b604082019050919050565b60006020820190508181036000830152610b3581610af9565b9050919050565b7f73656e646572206973206e6f7420617574686f72697a656420746f206d696e7460008201527f206e617469766520746f6b656e00000000000000000000000000000000000000602082015250565b6000610b98602d836109de565b9150610ba382610b3c565b604082019050919050565b60006020820190508181036000830152610bc781610b8b565b9050919050565b7f73656e646572206973206e6f7420617574686f72697a656420746f206d696e7460008201527f204552433131353520746f6b656e000000000000000000000000000000000000602082015250565b6000610c2a602e836109de565b9150610c3582610bce565b604082019050919050565b60006020820190508181036000830152610c5981610c1d565b9050919050565b6000606082019050610c75600083018661091b565b610c826020830185610972565b610c8f6040830184610972565b949350505050565b7f4f776e61626c653a206e6577206f776e657220697320746865207a65726f206160008201527f6464726573730000000000000000000000000000000000000000000000000000602082015250565b6000610cf36026836109de565b9150610cfe82610c97565b604082019050919050565b60006020820190508181036000830152610d2281610ce6565b9050919050565b7f4f776e61626c653a2063616c6c6572206973206e6f7420746865206f776e6572600082015250565b6000610d5f6020836109de565b9150610d6a82610d29565b602082019050919050565b60006020820190508181036000830152610d8e81610d52565b905091905056fea264697066735822122035cf387be150ddb05696a2390a6f208132ddc19b87df717a53a64421d1dac84e64736f6c634300080b0033",
    "linkReferences": {},
    "deployedLinkReferences": {}
}