{
    "_format": "hh-sol-artifact-1",
    "contractName": "ERC1155RewardTiersDoubleMinter",
    "sourceName": "contracts/ERC1155RewardTiersDoubleMinter.sol",
    "abi": [
        {
            "inputs": [
                {
                    "internalType": "address",
                    "name": "erc1155Contract",
                    "type": "address"
                }
            ],
            "stateMutability": "nonpayable",
            "type": "constructor"
        },
        {
            "anonymous": false,
            "inputs": [
                {
                    "indexed": true,
                    "internalType": "address",
                    "name": "previousOwner",
                    "type": "address"
                },
                {
                    "indexed": true,
                    "internalType": "address",
                    "name": "newOwner",
                    "type": "address"
                }
            ],
            "name": "OwnershipTransferred",
            "type": "event"
        },
        {
            "inputs": [],
            "name": "getERC1155Contract",
            "outputs": [
                {
                    "internalType": "address",
                    "name": "",
                    "type": "address"
                }
            ],
            "stateMutability": "view",
            "type": "function"
        },
        {
            "inputs": [
                {
                    "internalType": "address",
                    "name": "to",
                    "type": "address"
                },
                {
                    "internalType": "uint256",
                    "name": "amountNative",
                    "type": "uint256"
                },
                {
                    "internalType": "uint256",
                    "name": "id",
                    "type": "uint256"
                },
                {
                    "internalType": "uint256",
                    "name": "amountERC1155",
                    "type": "uint256"
                }
            ],
            "name": "mintTokens",
            "outputs": [],
            "stateMutability": "nonpayable",
            "type": "function"
        },
        {
            "inputs": [],
            "name": "owner",
            "outputs": [
                {
                    "internalType": "address",
                    "name": "",
                    "type": "address"
                }
            ],
            "stateMutability": "view",
            "type": "function"
        },
        {
            "inputs": [],
            "name": "renounceOwnership",
            "outputs": [],
            "stateMutability": "nonpayable",
            "type": "function"
        },
        {
            "inputs": [
                {
                    "internalType": "address",
                    "name": "newOwner",
                    "type": "address"
                }
            ],
            "name": "transferOwnership",
            "outputs": [],
            "stateMutability": "nonpayable",
            "type": "function"
        }
    ],
    "bytecode": "0x6080604052730200000000000000000000000000000000000001600160006101000a81548173ffffffffffffffffffffffffffffffffffffffff021916908373ffffffffffffffffffffffffffffffffffffffff1602179055503480156200006657600080fd5b5060405162000ff238038062000ff283398181016040528101906200008c91906200022a565b620000ac620000a0620000f460201b60201c565b620000fc60201b60201c565b80600260006101000a81548173ffffffffffffffffffffffffffffffffffffffff021916908373ffffffffffffffffffffffffffffffffffffffff160217905550506200025c565b600033905090565b60008060009054906101000a900473ffffffffffffffffffffffffffffffffffffffff169050816000806101000a81548173ffffffffffffffffffffffffffffffffffffffff021916908373ffffffffffffffffffffffffffffffffffffffff1602179055508173ffffffffffffffffffffffffffffffffffffffff168173ffffffffffffffffffffffffffffffffffffffff167f8be0079c531659141344cd1fd0a4f28419497f9722a3daafe3b4186f6b6457e060405160405180910390a35050565b600080fd5b600073ffffffffffffffffffffffffffffffffffffffff82169050919050565b6000620001f282620001c5565b9050919050565b6200020481620001e5565b81146200021057600080fd5b50565b6000815190506200022481620001f9565b92915050565b600060208284031215620002435762000242620001c0565b5b6000620002538482850162000213565b91505092915050565b610d86806200026c6000396000f3fe608060405234801561001057600080fd5b50600436106100575760003560e01c8063715018a61461005c5780638bb50bba146100665780638da5cb5b1461008257806390475190146100a0578063f2fde38b146100be575b600080fd5b6100646100da565b005b610080600480360381019061007b919061088a565b6100ee565b005b61008a6105d0565b6040516100979190610900565b60405180910390f35b6100a86105f9565b6040516100b59190610900565b60405180910390f35b6100d860048036038101906100d3919061091b565b610623565b005b6100e26106a7565b6100ec6000610725565b565b6000600160009054906101000a900473ffffffffffffffffffffffffffffffffffffffff1673ffffffffffffffffffffffffffffffffffffffff1663eb54dae1306040518263ffffffff1660e01b815260040161014b9190610900565b602060405180830381865afa158015610168573d6000803e3d6000fd5b505050506040513d601f19601f8201168201806040525081019061018c919061095d565b9050600281148061019d5750600181145b6101dc576040517f08c379a00000000000000000000000000000000000000000000000000000000081526004016101d390610a0d565b60405180910390fd5b6000600260009054906101000a900473ffffffffffffffffffffffffffffffffffffffff1673ffffffffffffffffffffffffffffffffffffffff1663eb54dae1306040518263ffffffff1660e01b81526004016102399190610900565b602060405180830381865afa158015610256573d6000803e3d6000fd5b505050506040513d601f19601f8201168201806040525081019061027a919061095d565b9050600281148061028b5750600181145b6102ca576040517f08c379a00000000000000000000000000000000000000000000000000000000081526004016102c190610a9f565b60405180910390fd5b6000600160009054906101000a900473ffffffffffffffffffffffffffffffffffffffff1673ffffffffffffffffffffffffffffffffffffffff1663eb54dae1336040518263ffffffff1660e01b81526004016103279190610900565b602060405180830381865afa158015610344573d6000803e3d6000fd5b505050506040513d601f19601f82011682018060405250810190610368919061095d565b905060028114806103795750600181145b6103b8576040517f08c379a00000000000000000000000000000000000000000000000000000000081526004016103af90610b31565b60405180910390fd5b6000600260009054906101000a900473ffffffffffffffffffffffffffffffffffffffff1673ffffffffffffffffffffffffffffffffffffffff1663eb54dae1336040518263ffffffff1660e01b81526004016104159190610900565b602060405180830381865afa158015610432573d6000803e3d6000fd5b505050506040513d601f19601f82011682018060405250810190610456919061095d565b905060028114806104675750600181145b6104a6576040517f08c379a000000000000000000000000000000000000000000000000000000000815260040161049d90610bc3565b60405180910390fd5b600160009054906101000a900473ffffffffffffffffffffffffffffffffffffffff1673ffffffffffffffffffffffffffffffffffffffff16634f5aaaba89896040518363ffffffff1660e01b8152600401610503929190610bf2565b600060405180830381600087803b15801561051d57600080fd5b505af1158015610531573d6000803e3d6000fd5b50505050600260009054906101000a900473ffffffffffffffffffffffffffffffffffffffff1673ffffffffffffffffffffffffffffffffffffffff166323a36d2b8988886040518463ffffffff1660e01b815260040161059493929190610c1b565b600060405180830381600087803b1580156105ae57600080fd5b505af11580156105c2573d6000803e3d6000fd5b505050505050505050505050565b60008060009054906101000a900473ffffffffffffffffffffffffffffffffffffffff16905090565b6000600260009054906101000a900473ffffffffffffffffffffffffffffffffffffffff16905090565b61062b6106a7565b600073ffffffffffffffffffffffffffffffffffffffff168173ffffffffffffffffffffffffffffffffffffffff16141561069b576040517f08c379a000000000000000000000000000000000000000000000000000000000815260040161069290610cc4565b60405180910390fd5b6106a481610725565b50565b6106af6107e9565b73ffffffffffffffffffffffffffffffffffffffff166106cd6105d0565b73ffffffffffffffffffffffffffffffffffffffff1614610723576040517f08c379a000000000000000000000000000000000000000000000000000000000815260040161071a90610d30565b60405180910390fd5b565b60008060009054906101000a900473ffffffffffffffffffffffffffffffffffffffff169050816000806101000a81548173ffffffffffffffffffffffffffffffffffffffff021916908373ffffffffffffffffffffffffffffffffffffffff1602179055508173ffffffffffffffffffffffffffffffffffffffff168173ffffffffffffffffffffffffffffffffffffffff167f8be0079c531659141344cd1fd0a4f28419497f9722a3daafe3b4186f6b6457e060405160405180910390a35050565b600033905090565b600080fd5b600073ffffffffffffffffffffffffffffffffffffffff82169050919050565b6000610821826107f6565b9050919050565b61083181610816565b811461083c57600080fd5b50565b60008135905061084e81610828565b92915050565b6000819050919050565b61086781610854565b811461087257600080fd5b50565b6000813590506108848161085e565b92915050565b600080600080608085870312156108a4576108a36107f1565b5b60006108b28782880161083f565b94505060206108c387828801610875565b93505060406108d487828801610875565b92505060606108e587828801610875565b91505092959194509250565b6108fa81610816565b82525050565b600060208201905061091560008301846108f1565b92915050565b600060208284031215610931576109306107f1565b5b600061093f8482850161083f565b91505092915050565b6000815190506109578161085e565b92915050565b600060208284031215610973576109726107f1565b5b600061098184828501610948565b91505092915050565b600082825260208201905092915050565b7f7468697320636f6e7472616374206973206e6f7420617574686f72697a65642060008201527f746f206d696e74206e617469766520746f6b656e000000000000000000000000602082015250565b60006109f760348361098a565b9150610a028261099b565b604082019050919050565b60006020820190508181036000830152610a26816109ea565b9050919050565b7f7468697320636f6e7472616374206973206e6f7420617574686f72697a65642060008201527f746f206d696e74204552433131353520746f6b656e7300000000000000000000602082015250565b6000610a8960368361098a565b9150610a9482610a2d565b604082019050919050565b60006020820190508181036000830152610ab881610a7c565b9050919050565b7f73656e646572206973206e6f7420617574686f72697a656420746f206d696e7460008201527f206e617469766520746f6b656e00000000000000000000000000000000000000602082015250565b6000610b1b602d8361098a565b9150610b2682610abf565b604082019050919050565b60006020820190508181036000830152610b4a81610b0e565b9050919050565b7f73656e646572206973206e6f7420617574686f72697a656420746f206d696e7460008201527f204552433131353520746f6b656e000000000000000000000000000000000000602082015250565b6000610bad602e8361098a565b9150610bb882610b51565b604082019050919050565b60006020820190508181036000830152610bdc81610ba0565b9050919050565b610bec81610854565b82525050565b6000604082019050610c0760008301856108f1565b610c146020830184610be3565b9392505050565b6000606082019050610c3060008301866108f1565b610c3d6020830185610be3565b610c4a6040830184610be3565b949350505050565b7f4f776e61626c653a206e6577206f776e657220697320746865207a65726f206160008201527f6464726573730000000000000000000000000000000000000000000000000000602082015250565b6000610cae60268361098a565b9150610cb982610c52565b604082019050919050565b60006020820190508181036000830152610cdd81610ca1565b9050919050565b7f4f776e61626c653a2063616c6c6572206973206e6f7420746865206f776e6572600082015250565b6000610d1a60208361098a565b9150610d2582610ce4565b602082019050919050565b60006020820190508181036000830152610d4981610d0d565b905091905056fea26469706673582212208c34a6ba6f6df1312c4fab3dbb07e129495aa2f2022cdc71979ee890486aaada64736f6c634300080b0033",
    "linkReferences": {},
    "deployedLinkReferences": {}
}