{
  "_format": "hh-sol-artifact-1",
  "contractName": "RewardERC1155",
  "sourceName": "contracts/RewardERC1155.sol",
  "abi": [
    {
      "inputs": [],
      "stateMutability": "nonpayable",
      "type": "constructor"
    },
    {
      "anonymous": false,
      "inputs": [
        {
          "indexed": true,
          "internalType": "address",
          "name": "account",
          "type": "address"
        },
        {
          "indexed": true,
          "internalType": "address",
          "name": "operator",
          "type": "address"
        },
        {
          "indexed": false,
          "internalType": "bool",
          "name": "approved",
          "type": "bool"
        }
      ],
      "name": "ApprovalForAll",
      "type": "event"
    },
    {
      "anonymous": false,
      "inputs": [
        {
          "indexed": false,
          "internalType": "uint256",
          "name": "id",
          "type": "uint256"
        },
        {
          "indexed": false,
          "internalType": "address",
          "name": "creator",
          "type": "address"
        },
        {
          "indexed": false,
          "internalType": "string",
          "name": "uri",
          "type": "string"
        },
        {
          "indexed": false,
          "internalType": "uint256",
          "name": "maxTotalSupply",
          "type": "uint256"
        }
      ],
      "name": "CollectionCreated",
      "type": "event"
    },
    {
      "anonymous": false,
      "inputs": [
        {
          "indexed": true,
          "internalType": "address",
          "name": "previousOwner",
          "type": "address"
        },
        {
          "indexed": true,
          "internalType": "address",
          "name": "newOwner",
          "type": "address"
        }
      ],
      "name": "OwnershipTransferred",
      "type": "event"
    },
    {
      "anonymous": false,
      "inputs": [
        {
          "indexed": true,
          "internalType": "address",
          "name": "operator",
          "type": "address"
        },
        {
          "indexed": true,
          "internalType": "address",
          "name": "from",
          "type": "address"
        },
        {
          "indexed": true,
          "internalType": "address",
          "name": "to",
          "type": "address"
        },
        {
          "indexed": false,
          "internalType": "uint256[]",
          "name": "ids",
          "type": "uint256[]"
        },
        {
          "indexed": false,
          "internalType": "uint256[]",
          "name": "values",
          "type": "uint256[]"
        }
      ],
      "name": "TransferBatch",
      "type": "event"
    },
    {
      "anonymous": false,
      "inputs": [
        {
          "indexed": true,
          "internalType": "address",
          "name": "operator",
          "type": "address"
        },
        {
          "indexed": true,
          "internalType": "address",
          "name": "from",
          "type": "address"
        },
        {
          "indexed": true,
          "internalType": "address",
          "name": "to",
          "type": "address"
        },
        {
          "indexed": false,
          "internalType": "uint256",
          "name": "id",
          "type": "uint256"
        },
        {
          "indexed": false,
          "internalType": "uint256",
          "name": "value",
          "type": "uint256"
        }
      ],
      "name": "TransferSingle",
      "type": "event"
    },
    {
      "anonymous": false,
      "inputs": [
        {
          "indexed": false,
          "internalType": "string",
          "name": "value",
          "type": "string"
        },
        {
          "indexed": true,
          "internalType": "uint256",
          "name": "id",
          "type": "uint256"
        }
      ],
      "name": "URI",
      "type": "event"
    },
    {
      "anonymous": false,
      "inputs": [
        {
          "indexed": false,
          "internalType": "uint256",
          "name": "collectionId",
          "type": "uint256"
        },
        {
          "indexed": false,
          "internalType": "string",
          "name": "newUri",
          "type": "string"
        }
      ],
      "name": "UriSet",
      "type": "event"
    },
    {
      "inputs": [
        {
          "internalType": "address",
          "name": "account",
          "type": "address"
        },
        {
          "internalType": "uint256",
          "name": "id",
          "type": "uint256"
        }
      ],
      "name": "balanceOf",
      "outputs": [
        {
          "internalType": "uint256",
          "name": "",
          "type": "uint256"
        }
      ],
      "stateMutability": "view",
      "type": "function"
    },
    {
      "inputs": [
        {
          "internalType": "address[]",
          "name": "accounts",
          "type": "address[]"
        },
        {
          "internalType": "uint256[]",
          "name": "ids",
          "type": "uint256[]"
        }
      ],
      "name": "balanceOfBatch",
      "outputs": [
        {
          "internalType": "uint256[]",
          "name": "",
          "type": "uint256[]"
        }
      ],
      "stateMutability": "view",
      "type": "function"
    },
    {
      "inputs": [],
      "name": "collectionCount",
      "outputs": [
        {
          "internalType": "uint256",
          "name": "",
          "type": "uint256"
        }
      ],
      "stateMutability": "view",
      "type": "function"
    },
    {
      "inputs": [
        {
          "internalType": "uint256",
          "name": "",
          "type": "uint256"
        }
      ],
      "name": "collections",
      "outputs": [
        {
          "internalType": "address",
          "name": "creator",
          "type": "address"
        },
        {
          "internalType": "string",
          "name": "uri",
          "type": "string"
        },
        {
          "internalType": "uint256",
          "name": "totalSupply",
          "type": "uint256"
        },
        {
          "internalType": "uint256",
          "name": "maxTotalSupply",
          "type": "uint256"
        }
      ],
      "stateMutability": "view",
      "type": "function"
    },
    {
      "inputs": [
        {
          "internalType": "address",
          "name": "_creator",
          "type": "address"
        },
        {
          "internalType": "string",
          "name": "_uri",
          "type": "string"
        },
        {
          "internalType": "uint256",
          "name": "_maxTotalSupply",
          "type": "uint256"
        }
      ],
      "name": "createCollection",
      "outputs": [],
      "stateMutability": "nonpayable",
      "type": "function"
    },
    {
      "inputs": [
        {
          "internalType": "address",
          "name": "account",
          "type": "address"
        },
        {
          "internalType": "address",
          "name": "operator",
          "type": "address"
        }
      ],
      "name": "isApprovedForAll",
      "outputs": [
        {
          "internalType": "bool",
          "name": "",
          "type": "bool"
        }
      ],
      "stateMutability": "view",
      "type": "function"
    },
    {
      "inputs": [
        {
          "internalType": "address",
          "name": "addr",
          "type": "address"
        },
        {
          "internalType": "uint256",
          "name": "id",
          "type": "uint256"
        },
        {
          "internalType": "uint256",
          "name": "amount",
          "type": "uint256"
        }
      ],
      "name": "mintToken",
      "outputs": [],
      "stateMutability": "nonpayable",
      "type": "function"
    },
    {
      "inputs": [],
      "name": "owner",
      "outputs": [
        {
          "internalType": "address",
          "name": "",
          "type": "address"
        }
      ],
      "stateMutability": "view",
      "type": "function"
    },
    {
      "inputs": [
        {
          "internalType": "address",
          "name": "addr",
          "type": "address"
        },
        {
          "internalType": "uint256",
          "name": "id",
          "type": "uint256"
        }
      ],
      "name": "readAllowList",
      "outputs": [
        {
          "internalType": "uint256",
          "name": "",
          "type": "uint256"
        }
      ],
      "stateMutability": "view",
      "type": "function"
    },
    {
      "inputs": [],
      "name": "renounceOwnership",
      "outputs": [],
      "stateMutability": "nonpayable",
      "type": "function"
    },
    {
      "inputs": [
        {
          "internalType": "address",
          "name": "from",
          "type": "address"
        },
        {
          "internalType": "address",
          "name": "to",
          "type": "address"
        },
        {
          "internalType": "uint256[]",
          "name": "ids",
          "type": "uint256[]"
        },
        {
          "internalType": "uint256[]",
          "name": "amounts",
          "type": "uint256[]"
        },
        {
          "internalType": "bytes",
          "name": "data",
          "type": "bytes"
        }
      ],
      "name": "safeBatchTransferFrom",
      "outputs": [],
      "stateMutability": "nonpayable",
      "type": "function"
    },
    {
      "inputs": [
        {
          "internalType": "address",
          "name": "from",
          "type": "address"
        },
        {
          "internalType": "address",
          "name": "to",
          "type": "address"
        },
        {
          "internalType": "uint256",
          "name": "id",
          "type": "uint256"
        },
        {
          "internalType": "uint256",
          "name": "amount",
          "type": "uint256"
        },
        {
          "internalType": "bytes",
          "name": "data",
          "type": "bytes"
        }
      ],
      "name": "safeTransferFrom",
      "outputs": [],
      "stateMutability": "nonpayable",
      "type": "function"
    },
    {
      "inputs": [
        {
          "internalType": "address",
          "name": "addr",
          "type": "address"
        },
        {
          "internalType": "uint256",
          "name": "id",
          "type": "uint256"
        }
      ],
      "name": "setAdmin",
      "outputs": [],
      "stateMutability": "nonpayable",
      "type": "function"
    },
    {
      "inputs": [
        {
          "internalType": "address",
          "name": "operator",
          "type": "address"
        },
        {
          "internalType": "bool",
          "name": "approved",
          "type": "bool"
        }
      ],
      "name": "setApprovalForAll",
      "outputs": [],
      "stateMutability": "nonpayable",
      "type": "function"
    },
    {
      "inputs": [
        {
          "internalType": "address",
          "name": "addr",
          "type": "address"
        },
        {
          "internalType": "uint256",
          "name": "id",
          "type": "uint256"
        }
      ],
      "name": "setEnabled",
      "outputs": [],
      "stateMutability": "nonpayable",
      "type": "function"
    },
    {
      "inputs": [
        {
          "internalType": "address",
          "name": "addr",
          "type": "address"
        },
        {
          "internalType": "uint256",
          "name": "id",
          "type": "uint256"
        }
      ],
      "name": "setNone",
      "outputs": [],
      "stateMutability": "nonpayable",
      "type": "function"
    },
    {
      "inputs": [
        {
          "internalType": "uint256",
          "name": "_collectionId",
          "type": "uint256"
        },
        {
          "internalType": "string",
          "name": "_newUri",
          "type": "string"
        }
      ],
      "name": "setUri",
      "outputs": [],
      "stateMutability": "nonpayable",
      "type": "function"
    },
    {
      "inputs": [
        {
          "internalType": "bytes4",
          "name": "interfaceId",
          "type": "bytes4"
        }
      ],
      "name": "supportsInterface",
      "outputs": [
        {
          "internalType": "bool",
          "name": "",
          "type": "bool"
        }
      ],
      "stateMutability": "view",
      "type": "function"
    },
    {
      "inputs": [
        {
          "internalType": "address",
          "name": "newOwner",
          "type": "address"
        }
      ],
      "name": "transferOwnership",
      "outputs": [],
      "stateMutability": "nonpayable",
      "type": "function"
    },
    {
      "inputs": [
        {
          "internalType": "uint256",
          "name": "_collectionId",
          "type": "uint256"
        }
      ],
      "name": "uri",
      "outputs": [
        {
          "internalType": "string",
          "name": "",
          "type": "string"
        }
      ],
      "stateMutability": "view",
      "type": "function"
    }
  ],
  "bytecode": "0x60806040523480156200001157600080fd5b506040518060200160405280600081525062000033816200005a60201b60201c565b5062000054620000486200007660201b60201c565b6200007e60201b60201c565b62000259565b80600290805190602001906200007292919062000144565b5050565b600033905090565b6000600360009054906101000a900473ffffffffffffffffffffffffffffffffffffffff16905081600360006101000a81548173ffffffffffffffffffffffffffffffffffffffff021916908373ffffffffffffffffffffffffffffffffffffffff1602179055508173ffffffffffffffffffffffffffffffffffffffff168173ffffffffffffffffffffffffffffffffffffffff167f8be0079c531659141344cd1fd0a4f28419497f9722a3daafe3b4186f6b6457e060405160405180910390a35050565b828054620001529062000223565b90600052602060002090601f016020900481019282620001765760008555620001c2565b82601f106200019157805160ff1916838001178555620001c2565b82800160010185558215620001c2579182015b82811115620001c1578251825591602001919060010190620001a4565b5b509050620001d19190620001d5565b5090565b5b80821115620001f0576000816000905550600101620001d6565b5090565b7f4e487b7100000000000000000000000000000000000000000000000000000000600052602260045260246000fd5b600060028204905060018216806200023c57607f821691505b60208210811415620002535762000252620001f4565b5b50919050565b6140b780620002696000396000f3fe608060405234801561001057600080fd5b506004361061012b5760003560e01c80638123554a116100ad578063d7c52f4211610071578063d7c52f421461032a578063e985e9c514610346578063f242432a14610376578063f2fde38b14610392578063fdbda0ec146103ae5761012b565b80638123554a146102865780638da5cb5b146102a2578063a22cb465146102c0578063d57f966b146102dc578063d791eecf146102fa5761012b565b80633d0859d5116100f45780633d0859d5146101f85780634e1273f4146102145780634ff6428b14610244578063715018a614610260578063782f08ae1461026a5761012b565b8062fdd58e1461013057806301ffc9a7146101605780630e89341c1461019057806323a36d2b146101c05780632eb2c2d6146101dc575b600080fd5b61014a600480360381019061014591906125c8565b6103e1565b6040516101579190612617565b60405180910390f35b61017a6004803603810190610175919061268a565b6104aa565b60405161018791906126d2565b60405180910390f35b6101aa60048036038101906101a591906126ed565b61058c565b6040516101b791906127b3565b60405180910390f35b6101da60048036038101906101d591906127d5565b610678565b005b6101f660048036038101906101f19190612a25565b6108a2565b005b610212600480360381019061020d91906125c8565b610943565b005b61022e60048036038101906102299190612bb7565b610ae3565b60405161023b9190612ced565b60405180910390f35b61025e600480360381019061025991906125c8565b610bfc565b005b610268610d9c565b005b610284600480360381019061027f9190612db0565b610db0565b005b6102a0600480360381019061029b9190612e0c565b610e20565b005b6102aa611077565b6040516102b79190612e8a565b60405180910390f35b6102da60048036038101906102d59190612ed1565b6110a1565b005b6102e46110b7565b6040516102f19190612617565b60405180910390f35b610314600480360381019061030f91906125c8565b6110bd565b6040516103219190612617565b60405180910390f35b610344600480360381019061033f91906125c8565b61115d565b005b610360600480360381019061035b9190612f11565b6112fd565b60405161036d91906126d2565b60405180910390f35b610390600480360381019061038b9190612f51565b611391565b005b6103ac60048036038101906103a79190612fe8565b611432565b005b6103c860048036038101906103c391906126ed565b6114b6565b6040516103d89493929190613015565b60405180910390f35b60008073ffffffffffffffffffffffffffffffffffffffff168373ffffffffffffffffffffffffffffffffffffffff161415610452576040517f08c379a0000000000000000000000000000000000000000000000000000000008152600401610449906130d3565b60405180910390fd5b60008083815260200190815260200160002060008473ffffffffffffffffffffffffffffffffffffffff1673ffffffffffffffffffffffffffffffffffffffff16815260200190815260200160002054905092915050565b60007fd9b67a26000000000000000000000000000000000000000000000000000000007bffffffffffffffffffffffffffffffffffffffffffffffffffffffff1916827bffffffffffffffffffffffffffffffffffffffffffffffffffffffff1916148061057557507f0e89341c000000000000000000000000000000000000000000000000000000007bffffffffffffffffffffffffffffffffffffffffffffffffffffffff1916827bffffffffffffffffffffffffffffffffffffffffffffffffffffffff1916145b8061058557506105848261158e565b5b9050919050565b606060065482106105d2576040517f08c379a00000000000000000000000000000000000000000000000000000000081526004016105c99061313f565b60405180910390fd5b6005600083815260200190815260200160002060010180546105f39061318e565b80601f016020809104026020016040519081016040528092919081815260200182805461061f9061318e565b801561066c5780601f106106415761010080835404028352916020019161066c565b820191906000526020600020905b81548152906001019060200180831161064f57829003601f168201915b50505050509050919050565b6001600460003373ffffffffffffffffffffffffffffffffffffffff1673ffffffffffffffffffffffffffffffffffffffff168152602001908152602001600020600084815260200190815260200160002054148061072757506002600460003373ffffffffffffffffffffffffffffffffffffffff1673ffffffffffffffffffffffffffffffffffffffff168152602001908152602001600020600084815260200190815260200160002054145b806107645750610735611077565b73ffffffffffffffffffffffffffffffffffffffff163373ffffffffffffffffffffffffffffffffffffffff16145b6107a3576040517f08c379a000000000000000000000000000000000000000000000000000000000815260040161079a90613232565b60405180910390fd5b60065482106107e7576040517f08c379a00000000000000000000000000000000000000000000000000000000081526004016107de9061329e565b60405180910390fd5b8060056000848152602001908152602001600020600201600082825461080d91906132ed565b925050819055506005600083815260200190815260200160002060030154600560008481526020019081526020016000206002015410610882576040517f08c379a00000000000000000000000000000000000000000000000000000000081526004016108799061338f565b60405180910390fd5b61089d838383604051806020016040528060008152506115f8565b505050565b6108aa6117a9565b73ffffffffffffffffffffffffffffffffffffffff168573ffffffffffffffffffffffffffffffffffffffff1614806108f057506108ef856108ea6117a9565b6112fd565b5b61092f576040517f08c379a000000000000000000000000000000000000000000000000000000000815260040161092690613421565b60405180910390fd5b61093c85858585856117b1565b5050505050565b6002600460003373ffffffffffffffffffffffffffffffffffffffff1673ffffffffffffffffffffffffffffffffffffffff16815260200190815260200160002060008381526020019081526020016000205414806109d457506109a5611077565b73ffffffffffffffffffffffffffffffffffffffff163373ffffffffffffffffffffffffffffffffffffffff16145b610a13576040517f08c379a0000000000000000000000000000000000000000000000000000000008152600401610a0a9061348d565b60405180910390fd5b610a1b611077565b73ffffffffffffffffffffffffffffffffffffffff168273ffffffffffffffffffffffffffffffffffffffff161415610a89576040517f08c379a0000000000000000000000000000000000000000000000000000000008152600401610a80906134f9565b60405180910390fd5b6000600460008473ffffffffffffffffffffffffffffffffffffffff1673ffffffffffffffffffffffffffffffffffffffff1681526020019081526020016000206000838152602001908152602001600020819055505050565b60608151835114610b29576040517f08c379a0000000000000000000000000000000000000000000000000000000008152600401610b209061358b565b60405180910390fd5b6000835167ffffffffffffffff811115610b4657610b4561282d565b5b604051908082528060200260200182016040528015610b745781602001602082028036833780820191505090505b50905060005b8451811015610bf157610bc1858281518110610b9957610b986135ab565b5b6020026020010151858381518110610bb457610bb36135ab565b5b60200260200101516103e1565b828281518110610bd457610bd36135ab565b5b60200260200101818152505080610bea906135da565b9050610b7a565b508091505092915050565b6002600460003373ffffffffffffffffffffffffffffffffffffffff1673ffffffffffffffffffffffffffffffffffffffff1681526020019081526020016000206000838152602001908152602001600020541480610c8d5750610c5e611077565b73ffffffffffffffffffffffffffffffffffffffff163373ffffffffffffffffffffffffffffffffffffffff16145b610ccc576040517f08c379a0000000000000000000000000000000000000000000000000000000008152600401610cc390613695565b60405180910390fd5b610cd4611077565b73ffffffffffffffffffffffffffffffffffffffff168273ffffffffffffffffffffffffffffffffffffffff161415610d42576040517f08c379a0000000000000000000000000000000000000000000000000000000008152600401610d39906134f9565b60405180910390fd5b6002600460008473ffffffffffffffffffffffffffffffffffffffff1673ffffffffffffffffffffffffffffffffffffffff1681526020019081526020016000206000838152602001908152602001600020819055505050565b610da4611ad3565b610dae6000611b51565b565b610db8611ad3565b80600560008481526020019081526020016000206001019080519060200190610de292919061247d565b507f6d10c59cedadc720a2e20f54f0a461ef82bd35f762430e32ef049dd6d7fc27308282604051610e149291906136b5565b60405180910390a15050565b610e28611ad3565b600073ffffffffffffffffffffffffffffffffffffffff168373ffffffffffffffffffffffffffffffffffffffff161415610e98576040517f08c379a0000000000000000000000000000000000000000000000000000000008152600401610e8f90613731565b60405180910390fd5b600082511415610edd576040517f08c379a0000000000000000000000000000000000000000000000000000000008152600401610ed49061379d565b60405180910390fd5b60008111610f20576040517f08c379a0000000000000000000000000000000000000000000000000000000008152600401610f1790613809565b60405180910390fd5b60006006549050836005600083815260200190815260200160002060000160006101000a81548173ffffffffffffffffffffffffffffffffffffffff021916908373ffffffffffffffffffffffffffffffffffffffff16021790555082600560008381526020019081526020016000206001019080519060200190610fa692919061247d565b50816005600083815260200190815260200160002060030181905550600060066000815480929190610fd7906135da565b9190505590506002600460008773ffffffffffffffffffffffffffffffffffffffff1673ffffffffffffffffffffffffffffffffffffffff1681526020019081526020016000206000838152602001908152602001600020819055507f715b5fb56f385eb51ddab38f20a936a4cfde1fe98d6312c87ba100e9cb47374b818686866040516110689493929190613829565b60405180910390a15050505050565b6000600360009054906101000a900473ffffffffffffffffffffffffffffffffffffffff16905090565b6110b36110ac6117a9565b8383611c17565b5050565b60065481565b60006110c7611077565b73ffffffffffffffffffffffffffffffffffffffff168373ffffffffffffffffffffffffffffffffffffffff1614156111035760029050611157565b600460008473ffffffffffffffffffffffffffffffffffffffff1673ffffffffffffffffffffffffffffffffffffffff16815260200190815260200160002060008381526020019081526020016000205490505b92915050565b6002600460003373ffffffffffffffffffffffffffffffffffffffff1673ffffffffffffffffffffffffffffffffffffffff16815260200190815260200160002060008381526020019081526020016000205414806111ee57506111bf611077565b73ffffffffffffffffffffffffffffffffffffffff163373ffffffffffffffffffffffffffffffffffffffff16145b61122d576040517f08c379a0000000000000000000000000000000000000000000000000000000008152600401611224906138e7565b60405180910390fd5b611235611077565b73ffffffffffffffffffffffffffffffffffffffff168273ffffffffffffffffffffffffffffffffffffffff1614156112a3576040517f08c379a000000000000000000000000000000000000000000000000000000000815260040161129a906134f9565b60405180910390fd5b6001600460008473ffffffffffffffffffffffffffffffffffffffff1673ffffffffffffffffffffffffffffffffffffffff1681526020019081526020016000206000838152602001908152602001600020819055505050565b6000600160008473ffffffffffffffffffffffffffffffffffffffff1673ffffffffffffffffffffffffffffffffffffffff16815260200190815260200160002060008373ffffffffffffffffffffffffffffffffffffffff1673ffffffffffffffffffffffffffffffffffffffff16815260200190815260200160002060009054906101000a900460ff16905092915050565b6113996117a9565b73ffffffffffffffffffffffffffffffffffffffff168573ffffffffffffffffffffffffffffffffffffffff1614806113df57506113de856113d96117a9565b6112fd565b5b61141e576040517f08c379a000000000000000000000000000000000000000000000000000000000815260040161141590613421565b60405180910390fd5b61142b8585858585611d84565b5050505050565b61143a611ad3565b600073ffffffffffffffffffffffffffffffffffffffff168173ffffffffffffffffffffffffffffffffffffffff1614156114aa576040517f08c379a00000000000000000000000000000000000000000000000000000000081526004016114a190613979565b60405180910390fd5b6114b381611b51565b50565b60056020528060005260406000206000915090508060000160009054906101000a900473ffffffffffffffffffffffffffffffffffffffff16908060010180546114ff9061318e565b80601f016020809104026020016040519081016040528092919081815260200182805461152b9061318e565b80156115785780601f1061154d57610100808354040283529160200191611578565b820191906000526020600020905b81548152906001019060200180831161155b57829003601f168201915b5050505050908060020154908060030154905084565b60007f01ffc9a7000000000000000000000000000000000000000000000000000000007bffffffffffffffffffffffffffffffffffffffffffffffffffffffff1916827bffffffffffffffffffffffffffffffffffffffffffffffffffffffff1916149050919050565b600073ffffffffffffffffffffffffffffffffffffffff168473ffffffffffffffffffffffffffffffffffffffff161415611668576040517f08c379a000000000000000000000000000000000000000000000000000000000815260040161165f90613a0b565b60405180910390fd5b60006116726117a9565b9050600061167f85612020565b9050600061168c85612020565b905061169d8360008985858961209a565b8460008088815260200190815260200160002060008973ffffffffffffffffffffffffffffffffffffffff1673ffffffffffffffffffffffffffffffffffffffff16815260200190815260200160002060008282546116fc91906132ed565b925050819055508673ffffffffffffffffffffffffffffffffffffffff16600073ffffffffffffffffffffffffffffffffffffffff168473ffffffffffffffffffffffffffffffffffffffff167fc3d58168c5ae7397731d063d5bbf3d657854427343f4c083240f7aacaa2d0f62898960405161177a929190613a2b565b60405180910390a4611791836000898585896120a2565b6117a0836000898989896120aa565b50505050505050565b600033905090565b81518351146117f5576040517f08c379a00000000000000000000000000000000000000000000000000000000081526004016117ec90613ac6565b60405180910390fd5b600073ffffffffffffffffffffffffffffffffffffffff168473ffffffffffffffffffffffffffffffffffffffff161415611865576040517f08c379a000000000000000000000000000000000000000000000000000000000815260040161185c90613b58565b60405180910390fd5b600061186f6117a9565b905061187f81878787878761209a565b60005b8451811015611a305760008582815181106118a05761189f6135ab565b5b6020026020010151905060008583815181106118bf576118be6135ab565b5b60200260200101519050600080600084815260200190815260200160002060008b73ffffffffffffffffffffffffffffffffffffffff1673ffffffffffffffffffffffffffffffffffffffff16815260200190815260200160002054905081811015611960576040517f08c379a000000000000000000000000000000000000000000000000000000000815260040161195790613bea565b60405180910390fd5b81810360008085815260200190815260200160002060008c73ffffffffffffffffffffffffffffffffffffffff1673ffffffffffffffffffffffffffffffffffffffff168152602001908152602001600020819055508160008085815260200190815260200160002060008b73ffffffffffffffffffffffffffffffffffffffff1673ffffffffffffffffffffffffffffffffffffffff1681526020019081526020016000206000828254611a1591906132ed565b9250508190555050505080611a29906135da565b9050611882565b508473ffffffffffffffffffffffffffffffffffffffff168673ffffffffffffffffffffffffffffffffffffffff168273ffffffffffffffffffffffffffffffffffffffff167f4a39dc06d4c0dbc64b70af90fd698a233a518aa5d07e595d983b8c0526c8f7fb8787604051611aa7929190613c0a565b60405180910390a4611abd8187878787876120a2565b611acb818787878787612282565b505050505050565b611adb6117a9565b73ffffffffffffffffffffffffffffffffffffffff16611af9611077565b73ffffffffffffffffffffffffffffffffffffffff1614611b4f576040517f08c379a0000000000000000000000000000000000000000000000000000000008152600401611b4690613c8d565b60405180910390fd5b565b6000600360009054906101000a900473ffffffffffffffffffffffffffffffffffffffff16905081600360006101000a81548173ffffffffffffffffffffffffffffffffffffffff021916908373ffffffffffffffffffffffffffffffffffffffff1602179055508173ffffffffffffffffffffffffffffffffffffffff168173ffffffffffffffffffffffffffffffffffffffff167f8be0079c531659141344cd1fd0a4f28419497f9722a3daafe3b4186f6b6457e060405160405180910390a35050565b8173ffffffffffffffffffffffffffffffffffffffff168373ffffffffffffffffffffffffffffffffffffffff161415611c86576040517f08c379a0000000000000000000000000000000000000000000000000000000008152600401611c7d90613d1f565b60405180910390fd5b80600160008573ffffffffffffffffffffffffffffffffffffffff1673ffffffffffffffffffffffffffffffffffffffff16815260200190815260200160002060008473ffffffffffffffffffffffffffffffffffffffff1673ffffffffffffffffffffffffffffffffffffffff16815260200190815260200160002060006101000a81548160ff0219169083151502179055508173ffffffffffffffffffffffffffffffffffffffff168373ffffffffffffffffffffffffffffffffffffffff167f17307eab39ab6107e8899845ad3d59bd9653f200f220920489ca2b5937696c3183604051611d7791906126d2565b60405180910390a3505050565b600073ffffffffffffffffffffffffffffffffffffffff168473ffffffffffffffffffffffffffffffffffffffff161415611df4576040517f08c379a0000000000000000000000000000000000000000000000000000000008152600401611deb90613b58565b60405180910390fd5b6000611dfe6117a9565b90506000611e0b85612020565b90506000611e1885612020565b9050611e2883898985858961209a565b600080600088815260200190815260200160002060008a73ffffffffffffffffffffffffffffffffffffffff1673ffffffffffffffffffffffffffffffffffffffff16815260200190815260200160002054905085811015611ebf576040517f08c379a0000000000000000000000000000000000000000000000000000000008152600401611eb690613bea565b60405180910390fd5b85810360008089815260200190815260200160002060008b73ffffffffffffffffffffffffffffffffffffffff1673ffffffffffffffffffffffffffffffffffffffff168152602001908152602001600020819055508560008089815260200190815260200160002060008a73ffffffffffffffffffffffffffffffffffffffff1673ffffffffffffffffffffffffffffffffffffffff1681526020019081526020016000206000828254611f7491906132ed565b925050819055508773ffffffffffffffffffffffffffffffffffffffff168973ffffffffffffffffffffffffffffffffffffffff168573ffffffffffffffffffffffffffffffffffffffff167fc3d58168c5ae7397731d063d5bbf3d657854427343f4c083240f7aacaa2d0f628a8a604051611ff1929190613a2b565b60405180910390a4612007848a8a86868a6120a2565b612015848a8a8a8a8a6120aa565b505050505050505050565b60606000600167ffffffffffffffff81111561203f5761203e61282d565b5b60405190808252806020026020018201604052801561206d5781602001602082028036833780820191505090505b5090508281600081518110612085576120846135ab565b5b60200260200101818152505080915050919050565b505050505050565b505050505050565b6120c98473ffffffffffffffffffffffffffffffffffffffff1661245a565b1561227a578373ffffffffffffffffffffffffffffffffffffffff1663f23a6e6187878686866040518663ffffffff1660e01b815260040161210f959493929190613d94565b6020604051808303816000875af192505050801561214b57506040513d601f19601f820116820180604052508101906121489190613e03565b60015b6121f157612157613e3d565b806308c379a014156121b4575061216c613e5f565b8061217757506121b6565b806040517f08c379a00000000000000000000000000000000000000000000000000000000081526004016121ab91906127b3565b60405180910390fd5b505b6040517f08c379a00000000000000000000000000000000000000000000000000000000081526004016121e890613f67565b60405180910390fd5b63f23a6e6160e01b7bffffffffffffffffffffffffffffffffffffffffffffffffffffffff1916817bffffffffffffffffffffffffffffffffffffffffffffffffffffffff191614612278576040517f08c379a000000000000000000000000000000000000000000000000000000000815260040161226f90613ff9565b60405180910390fd5b505b505050505050565b6122a18473ffffffffffffffffffffffffffffffffffffffff1661245a565b15612452578373ffffffffffffffffffffffffffffffffffffffff1663bc197c8187878686866040518663ffffffff1660e01b81526004016122e7959493929190614019565b6020604051808303816000875af192505050801561232357506040513d601f19601f820116820180604052508101906123209190613e03565b60015b6123c95761232f613e3d565b806308c379a0141561238c5750612344613e5f565b8061234f575061238e565b806040517f08c379a000000000000000000000000000000000000000000000000000000000815260040161238391906127b3565b60405180910390fd5b505b6040517f08c379a00000000000000000000000000000000000000000000000000000000081526004016123c090613f67565b60405180910390fd5b63bc197c8160e01b7bffffffffffffffffffffffffffffffffffffffffffffffffffffffff1916817bffffffffffffffffffffffffffffffffffffffffffffffffffffffff191614612450576040517f08c379a000000000000000000000000000000000000000000000000000000000815260040161244790613ff9565b60405180910390fd5b505b505050505050565b6000808273ffffffffffffffffffffffffffffffffffffffff163b119050919050565b8280546124899061318e565b90600052602060002090601f0160209004810192826124ab57600085556124f2565b82601f106124c457805160ff19168380011785556124f2565b828001600101855582156124f2579182015b828111156124f15782518255916020019190600101906124d6565b5b5090506124ff9190612503565b5090565b5b8082111561251c576000816000905550600101612504565b5090565b6000604051905090565b600080fd5b600080fd5b600073ffffffffffffffffffffffffffffffffffffffff82169050919050565b600061255f82612534565b9050919050565b61256f81612554565b811461257a57600080fd5b50565b60008135905061258c81612566565b92915050565b6000819050919050565b6125a581612592565b81146125b057600080fd5b50565b6000813590506125c28161259c565b92915050565b600080604083850312156125df576125de61252a565b5b60006125ed8582860161257d565b92505060206125fe858286016125b3565b9150509250929050565b61261181612592565b82525050565b600060208201905061262c6000830184612608565b92915050565b60007fffffffff0000000000000000000000000000000000000000000000000000000082169050919050565b61266781612632565b811461267257600080fd5b50565b6000813590506126848161265e565b92915050565b6000602082840312156126a05761269f61252a565b5b60006126ae84828501612675565b91505092915050565b60008115159050919050565b6126cc816126b7565b82525050565b60006020820190506126e760008301846126c3565b92915050565b6000602082840312156127035761270261252a565b5b6000612711848285016125b3565b91505092915050565b600081519050919050565b600082825260208201905092915050565b60005b83811015612754578082015181840152602081019050612739565b83811115612763576000848401525b50505050565b6000601f19601f8301169050919050565b60006127858261271a565b61278f8185612725565b935061279f818560208601612736565b6127a881612769565b840191505092915050565b600060208201905081810360008301526127cd818461277a565b905092915050565b6000806000606084860312156127ee576127ed61252a565b5b60006127fc8682870161257d565b935050602061280d868287016125b3565b925050604061281e868287016125b3565b9150509250925092565b600080fd5b7f4e487b7100000000000000000000000000000000000000000000000000000000600052604160045260246000fd5b61286582612769565b810181811067ffffffffffffffff821117156128845761288361282d565b5b80604052505050565b6000612897612520565b90506128a3828261285c565b919050565b600067ffffffffffffffff8211156128c3576128c261282d565b5b602082029050602081019050919050565b600080fd5b60006128ec6128e7846128a8565b61288d565b9050808382526020820190506020840283018581111561290f5761290e6128d4565b5b835b81811015612938578061292488826125b3565b845260208401935050602081019050612911565b5050509392505050565b600082601f83011261295757612956612828565b5b81356129678482602086016128d9565b91505092915050565b600080fd5b600067ffffffffffffffff8211156129905761298f61282d565b5b61299982612769565b9050602081019050919050565b82818337600083830152505050565b60006129c86129c384612975565b61288d565b9050828152602081018484840111156129e4576129e3612970565b5b6129ef8482856129a6565b509392505050565b600082601f830112612a0c57612a0b612828565b5b8135612a1c8482602086016129b5565b91505092915050565b600080600080600060a08688031215612a4157612a4061252a565b5b6000612a4f8882890161257d565b9550506020612a608882890161257d565b945050604086013567ffffffffffffffff811115612a8157612a8061252f565b5b612a8d88828901612942565b935050606086013567ffffffffffffffff811115612aae57612aad61252f565b5b612aba88828901612942565b925050608086013567ffffffffffffffff811115612adb57612ada61252f565b5b612ae7888289016129f7565b9150509295509295909350565b600067ffffffffffffffff821115612b0f57612b0e61282d565b5b602082029050602081019050919050565b6000612b33612b2e84612af4565b61288d565b90508083825260208201905060208402830185811115612b5657612b556128d4565b5b835b81811015612b7f5780612b6b888261257d565b845260208401935050602081019050612b58565b5050509392505050565b600082601f830112612b9e57612b9d612828565b5b8135612bae848260208601612b20565b91505092915050565b60008060408385031215612bce57612bcd61252a565b5b600083013567ffffffffffffffff811115612bec57612beb61252f565b5b612bf885828601612b89565b925050602083013567ffffffffffffffff811115612c1957612c1861252f565b5b612c2585828601612942565b9150509250929050565b600081519050919050565b600082825260208201905092915050565b6000819050602082019050919050565b612c6481612592565b82525050565b6000612c768383612c5b565b60208301905092915050565b6000602082019050919050565b6000612c9a82612c2f565b612ca48185612c3a565b9350612caf83612c4b565b8060005b83811015612ce0578151612cc78882612c6a565b9750612cd283612c82565b925050600181019050612cb3565b5085935050505092915050565b60006020820190508181036000830152612d078184612c8f565b905092915050565b600067ffffffffffffffff821115612d2a57612d2961282d565b5b612d3382612769565b9050602081019050919050565b6000612d53612d4e84612d0f565b61288d565b905082815260208101848484011115612d6f57612d6e612970565b5b612d7a8482856129a6565b509392505050565b600082601f830112612d9757612d96612828565b5b8135612da7848260208601612d40565b91505092915050565b60008060408385031215612dc757612dc661252a565b5b6000612dd5858286016125b3565b925050602083013567ffffffffffffffff811115612df657612df561252f565b5b612e0285828601612d82565b9150509250929050565b600080600060608486031215612e2557612e2461252a565b5b6000612e338682870161257d565b935050602084013567ffffffffffffffff811115612e5457612e5361252f565b5b612e6086828701612d82565b9250506040612e71868287016125b3565b9150509250925092565b612e8481612554565b82525050565b6000602082019050612e9f6000830184612e7b565b92915050565b612eae816126b7565b8114612eb957600080fd5b50565b600081359050612ecb81612ea5565b92915050565b60008060408385031215612ee857612ee761252a565b5b6000612ef68582860161257d565b9250506020612f0785828601612ebc565b9150509250929050565b60008060408385031215612f2857612f2761252a565b5b6000612f368582860161257d565b9250506020612f478582860161257d565b9150509250929050565b600080600080600060a08688031215612f6d57612f6c61252a565b5b6000612f7b8882890161257d565b9550506020612f8c8882890161257d565b9450506040612f9d888289016125b3565b9350506060612fae888289016125b3565b925050608086013567ffffffffffffffff811115612fcf57612fce61252f565b5b612fdb888289016129f7565b9150509295509295909350565b600060208284031215612ffe57612ffd61252a565b5b600061300c8482850161257d565b91505092915050565b600060808201905061302a6000830187612e7b565b818103602083015261303c818661277a565b905061304b6040830185612608565b6130586060830184612608565b95945050505050565b7f455243313135353a2061646472657373207a65726f206973206e6f742061207660008201527f616c6964206f776e657200000000000000000000000000000000000000000000602082015250565b60006130bd602a83612725565b91506130c882613061565b604082019050919050565b600060208201905081810360008301526130ec816130b0565b9050919050565b7f696e636f727265637420636f6c6c656374696f6e204944000000000000000000600082015250565b6000613129601783612725565b9150613134826130f3565b602082019050919050565b600060208201905081810360008301526131588161311c565b9050919050565b7f4e487b7100000000000000000000000000000000000000000000000000000000600052602260045260246000fd5b600060028204905060018216806131a657607f821691505b602082108114156131ba576131b961315f565b5b50919050565b7f4f6e6c7920616c6c6f776564206d696e746572732063616e206d696e7420746f60008201527f6b656e7300000000000000000000000000000000000000000000000000000000602082015250565b600061321c602483612725565b9150613227826131c0565b604082019050919050565b6000602082019050818103600083015261324b8161320f565b9050919050565b7f696e636f72726563742049440000000000000000000000000000000000000000600082015250565b6000613288600c83612725565b915061329382613252565b602082019050919050565b600060208201905081810360008301526132b78161327b565b9050919050565b7f4e487b7100000000000000000000000000000000000000000000000000000000600052601160045260246000fd5b60006132f882612592565b915061330383612592565b9250827fffffffffffffffffffffffffffffffffffffffffffffffffffffffffffffffff03821115613338576133376132be565b5b828201905092915050565b7f6d617820737570706c7920657863656564656400000000000000000000000000600082015250565b6000613379601383612725565b915061338482613343565b602082019050919050565b600060208201905081810360008301526133a88161336c565b9050919050565b7f455243313135353a2063616c6c6572206973206e6f7420746f6b656e206f776e60008201527f6572206e6f7220617070726f7665640000000000000000000000000000000000602082015250565b600061340b602f83612725565b9150613416826133af565b604082019050919050565b6000602082019050818103600083015261343a816133fe565b9050919050565b7f4f6e6c7920616e2061646d696e2063616e2073657420726f6c65730000000000600082015250565b6000613477601b83612725565b915061348282613441565b602082019050919050565b600060208201905081810360008301526134a68161346a565b9050919050565b7f526f6c6520666f7220746865206f776e65722063616e6e6f7420626520736574600082015250565b60006134e3602083612725565b91506134ee826134ad565b602082019050919050565b60006020820190508181036000830152613512816134d6565b9050919050565b7f455243313135353a206163636f756e747320616e6420696473206c656e67746860008201527f206d69736d617463680000000000000000000000000000000000000000000000602082015250565b6000613575602983612725565b915061358082613519565b604082019050919050565b600060208201905081810360008301526135a481613568565b9050919050565b7f4e487b7100000000000000000000000000000000000000000000000000000000600052603260045260246000fd5b60006135e582612592565b91507fffffffffffffffffffffffffffffffffffffffffffffffffffffffffffffffff821415613618576136176132be565b5b600182019050919050565b7f4f6e6c7920616e2061646d696e2063616e2073657420616e2061646d696e207260008201527f6f6c650000000000000000000000000000000000000000000000000000000000602082015250565b600061367f602383612725565b915061368a82613623565b604082019050919050565b600060208201905081810360008301526136ae81613672565b9050919050565b60006040820190506136ca6000830185612608565b81810360208301526136dc818461277a565b90509392505050565b7f63726561746f72206973207a65726f0000000000000000000000000000000000600082015250565b600061371b600f83612725565b9150613726826136e5565b602082019050919050565b6000602082019050818103600083015261374a8161370e565b9050919050565b7f696e636f72726563742055524900000000000000000000000000000000000000600082015250565b6000613787600d83612725565b915061379282613751565b602082019050919050565b600060208201905081810360008301526137b68161377a565b9050919050565b7f696e636f7272656374206d617820737570706c79000000000000000000000000600082015250565b60006137f3601483612725565b91506137fe826137bd565b602082019050919050565b60006020820190508181036000830152613822816137e6565b9050919050565b600060808201905061383e6000830187612608565b61384b6020830186612e7b565b818103604083015261385d818561277a565b905061386c6060830184612608565b95945050505050565b7f4f6e6c7920616e2061646d696e2063616e20656e61626c652061206d696e746560008201527f7200000000000000000000000000000000000000000000000000000000000000602082015250565b60006138d1602183612725565b91506138dc82613875565b604082019050919050565b60006020820190508181036000830152613900816138c4565b9050919050565b7f4f776e61626c653a206e6577206f776e657220697320746865207a65726f206160008201527f6464726573730000000000000000000000000000000000000000000000000000602082015250565b6000613963602683612725565b915061396e82613907565b604082019050919050565b6000602082019050818103600083015261399281613956565b9050919050565b7f455243313135353a206d696e7420746f20746865207a65726f2061646472657360008201527f7300000000000000000000000000000000000000000000000000000000000000602082015250565b60006139f5602183612725565b9150613a0082613999565b604082019050919050565b60006020820190508181036000830152613a24816139e8565b9050919050565b6000604082019050613a406000830185612608565b613a4d6020830184612608565b9392505050565b7f455243313135353a2069647320616e6420616d6f756e7473206c656e6774682060008201527f6d69736d61746368000000000000000000000000000000000000000000000000602082015250565b6000613ab0602883612725565b9150613abb82613a54565b604082019050919050565b60006020820190508181036000830152613adf81613aa3565b9050919050565b7f455243313135353a207472616e7366657220746f20746865207a65726f20616460008201527f6472657373000000000000000000000000000000000000000000000000000000602082015250565b6000613b42602583612725565b9150613b4d82613ae6565b604082019050919050565b60006020820190508181036000830152613b7181613b35565b9050919050565b7f455243313135353a20696e73756666696369656e742062616c616e636520666f60008201527f72207472616e7366657200000000000000000000000000000000000000000000602082015250565b6000613bd4602a83612725565b9150613bdf82613b78565b604082019050919050565b60006020820190508181036000830152613c0381613bc7565b9050919050565b60006040820190508181036000830152613c248185612c8f565b90508181036020830152613c388184612c8f565b90509392505050565b7f4f776e61626c653a2063616c6c6572206973206e6f7420746865206f776e6572600082015250565b6000613c77602083612725565b9150613c8282613c41565b602082019050919050565b60006020820190508181036000830152613ca681613c6a565b9050919050565b7f455243313135353a2073657474696e6720617070726f76616c2073746174757360008201527f20666f722073656c660000000000000000000000000000000000000000000000602082015250565b6000613d09602983612725565b9150613d1482613cad565b604082019050919050565b60006020820190508181036000830152613d3881613cfc565b9050919050565b600081519050919050565b600082825260208201905092915050565b6000613d6682613d3f565b613d708185613d4a565b9350613d80818560208601612736565b613d8981612769565b840191505092915050565b600060a082019050613da96000830188612e7b565b613db66020830187612e7b565b613dc36040830186612608565b613dd06060830185612608565b8181036080830152613de28184613d5b565b90509695505050505050565b600081519050613dfd8161265e565b92915050565b600060208284031215613e1957613e1861252a565b5b6000613e2784828501613dee565b91505092915050565b60008160e01c9050919050565b600060033d1115613e5c5760046000803e613e59600051613e30565b90505b90565b600060443d1015613e6f57613ef2565b613e77612520565b60043d036004823e80513d602482011167ffffffffffffffff82111715613e9f575050613ef2565b808201805167ffffffffffffffff811115613ebd5750505050613ef2565b80602083010160043d038501811115613eda575050505050613ef2565b613ee98260200185018661285c565b82955050505050505b90565b7f455243313135353a207472616e7366657220746f206e6f6e204552433131353560008201527f526563656976657220696d706c656d656e746572000000000000000000000000602082015250565b6000613f51603483612725565b9150613f5c82613ef5565b604082019050919050565b60006020820190508181036000830152613f8081613f44565b9050919050565b7f455243313135353a204552433131353552656365697665722072656a6563746560008201527f6420746f6b656e73000000000000000000000000000000000000000000000000602082015250565b6000613fe3602883612725565b9150613fee82613f87565b604082019050919050565b6000602082019050818103600083015261401281613fd6565b9050919050565b600060a08201905061402e6000830188612e7b565b61403b6020830187612e7b565b818103604083015261404d8186612c8f565b905081810360608301526140618185612c8f565b905081810360808301526140758184613d5b565b9050969550505050505056fea26469706673582212206661d7c4efe9b4f3c97a514848cff85361794b48f6e902de64f5995f1575ea2464736f6c634300080b0033",
  "linkReferences": {},
  "deployedLinkReferences": {}
}