{
  "_format": "hh-sol-artifact-1",
  "contractName": "RewardTierERC1155",
  "sourceName": "contracts/RewardTierERC1155.sol",
  "abi": [
    {
      "inputs": [
        {
          "internalType": "address",
          "name": "_creatorAddress",
          "type": "address"
        },
        {
          "internalType": "uint256[]",
          "name": "_maxTotalSupplies",
          "type": "uint256[]"
        },
        {
          "internalType": "string[]",
          "name": "_rewardTierNames",
          "type": "string[]"
        },
        {
          "internalType": "uint256[]",
          "name": "_requiredRewardAmounts",
          "type": "uint256[]"
        },
        {
          "internalType": "string[]",
          "name": "_uris",
          "type": "string[]"
        }
      ],
      "stateMutability": "nonpayable",
      "type": "constructor"
    },
    {
      "anonymous": false,
      "inputs": [
        {
          "indexed": true,
          "internalType": "address",
          "name": "account",
          "type": "address"
        },
        {
          "indexed": true,
          "internalType": "address",
          "name": "operator",
          "type": "address"
        },
        {
          "indexed": false,
          "internalType": "bool",
          "name": "approved",
          "type": "bool"
        }
      ],
      "name": "ApprovalForAll",
      "type": "event"
    },
    {
      "anonymous": false,
      "inputs": [
        {
          "indexed": true,
          "internalType": "address",
          "name": "previousOwner",
          "type": "address"
        },
        {
          "indexed": true,
          "internalType": "address",
          "name": "newOwner",
          "type": "address"
        }
      ],
      "name": "OwnershipTransferred",
      "type": "event"
    },
    {
      "anonymous": false,
      "inputs": [
        {
          "indexed": false,
          "internalType": "string",
          "name": "rewardTierName",
          "type": "string"
        },
        {
          "indexed": false,
          "internalType": "uint256",
          "name": "requiredRewardAmount",
          "type": "uint256"
        },
        {
          "indexed": false,
          "internalType": "string",
          "name": "uri",
          "type": "string"
        }
      ],
      "name": "RewardTierAdded",
      "type": "event"
    },
    {
      "anonymous": false,
      "inputs": [
        {
          "indexed": false,
          "internalType": "uint256",
          "name": "rewardTierId",
          "type": "uint256"
        },
        {
          "indexed": false,
          "internalType": "uint256",
          "name": "newRequiredRewardAmount",
          "type": "uint256"
        }
      ],
      "name": "RewardTierEdited",
      "type": "event"
    },
    {
      "anonymous": false,
      "inputs": [
        {
          "indexed": true,
          "internalType": "address",
          "name": "operator",
          "type": "address"
        },
        {
          "indexed": true,
          "internalType": "address",
          "name": "from",
          "type": "address"
        },
        {
          "indexed": true,
          "internalType": "address",
          "name": "to",
          "type": "address"
        },
        {
          "indexed": false,
          "internalType": "uint256[]",
          "name": "ids",
          "type": "uint256[]"
        },
        {
          "indexed": false,
          "internalType": "uint256[]",
          "name": "values",
          "type": "uint256[]"
        }
      ],
      "name": "TransferBatch",
      "type": "event"
    },
    {
      "anonymous": false,
      "inputs": [
        {
          "indexed": true,
          "internalType": "address",
          "name": "operator",
          "type": "address"
        },
        {
          "indexed": true,
          "internalType": "address",
          "name": "from",
          "type": "address"
        },
        {
          "indexed": true,
          "internalType": "address",
          "name": "to",
          "type": "address"
        },
        {
          "indexed": false,
          "internalType": "uint256",
          "name": "id",
          "type": "uint256"
        },
        {
          "indexed": false,
          "internalType": "uint256",
          "name": "value",
          "type": "uint256"
        }
      ],
      "name": "TransferSingle",
      "type": "event"
    },
    {
      "anonymous": false,
      "inputs": [
        {
          "indexed": false,
          "internalType": "string",
          "name": "value",
          "type": "string"
        },
        {
          "indexed": true,
          "internalType": "uint256",
          "name": "id",
          "type": "uint256"
        }
      ],
      "name": "URI",
      "type": "event"
    },
    {
      "anonymous": false,
      "inputs": [
        {
          "indexed": false,
          "internalType": "uint256",
          "name": "rewardTierId",
          "type": "uint256"
        },
        {
          "indexed": false,
          "internalType": "string",
          "name": "newUri",
          "type": "string"
        }
      ],
      "name": "UriSet",
      "type": "event"
    },
    {
      "inputs": [
        {
          "internalType": "string",
          "name": "_rewardTierName",
          "type": "string"
        },
        {
          "internalType": "uint256",
          "name": "_requiredRewardAmount",
          "type": "uint256"
        },
        {
          "internalType": "uint256",
          "name": "_maxTotalSupply",
          "type": "uint256"
        },
        {
          "internalType": "string",
          "name": "_uri",
          "type": "string"
        }
      ],
      "name": "addRewardTier",
      "outputs": [],
      "stateMutability": "nonpayable",
      "type": "function"
    },
    {
      "inputs": [
        {
          "internalType": "address",
          "name": "account",
          "type": "address"
        },
        {
          "internalType": "uint256",
          "name": "id",
          "type": "uint256"
        }
      ],
      "name": "balanceOf",
      "outputs": [
        {
          "internalType": "uint256",
          "name": "",
          "type": "uint256"
        }
      ],
      "stateMutability": "view",
      "type": "function"
    },
    {
      "inputs": [
        {
          "internalType": "address[]",
          "name": "accounts",
          "type": "address[]"
        },
        {
          "internalType": "uint256[]",
          "name": "ids",
          "type": "uint256[]"
        }
      ],
      "name": "balanceOfBatch",
      "outputs": [
        {
          "internalType": "uint256[]",
          "name": "",
          "type": "uint256[]"
        }
      ],
      "stateMutability": "view",
      "type": "function"
    },
    {
      "inputs": [
        {
          "internalType": "uint256",
          "name": "_rewardTierId",
          "type": "uint256"
        },
        {
          "internalType": "uint256",
          "name": "_newRequiredRewardAmount",
          "type": "uint256"
        }
      ],
      "name": "editRequiredRewardAmount",
      "outputs": [],
      "stateMutability": "nonpayable",
      "type": "function"
    },
    {
      "inputs": [
        {
          "internalType": "address",
          "name": "account",
          "type": "address"
        },
        {
          "internalType": "address",
          "name": "operator",
          "type": "address"
        }
      ],
      "name": "isApprovedForAll",
      "outputs": [
        {
          "internalType": "bool",
          "name": "",
          "type": "bool"
        }
      ],
      "stateMutability": "view",
      "type": "function"
    },
    {
      "inputs": [
        {
          "internalType": "address",
          "name": "addr",
          "type": "address"
        },
        {
          "internalType": "uint256",
          "name": "id",
          "type": "uint256"
        },
        {
          "internalType": "uint256",
          "name": "amount",
          "type": "uint256"
        }
      ],
      "name": "mintToken",
      "outputs": [],
      "stateMutability": "nonpayable",
      "type": "function"
    },
    {
      "inputs": [],
      "name": "owner",
      "outputs": [
        {
          "internalType": "address",
          "name": "",
          "type": "address"
        }
      ],
      "stateMutability": "view",
      "type": "function"
    },
    {
      "inputs": [
        {
          "internalType": "address",
          "name": "addr",
          "type": "address"
        }
      ],
      "name": "readAllowList",
      "outputs": [
        {
          "internalType": "uint256",
          "name": "",
          "type": "uint256"
        }
      ],
      "stateMutability": "view",
      "type": "function"
    },
    {
      "inputs": [],
      "name": "renounceOwnership",
      "outputs": [],
      "stateMutability": "nonpayable",
      "type": "function"
    },
    {
      "inputs": [],
      "name": "rewardTierCount",
      "outputs": [
        {
          "internalType": "uint256",
          "name": "",
          "type": "uint256"
        }
      ],
      "stateMutability": "view",
      "type": "function"
    },
    {
      "inputs": [
        {
          "internalType": "uint256",
          "name": "",
          "type": "uint256"
        }
      ],
      "name": "rewardTiers",
      "outputs": [
        {
          "internalType": "string",
          "name": "rewardTierName",
          "type": "string"
        },
        {
          "internalType": "uint256",
          "name": "requiredRewardAmount",
          "type": "uint256"
        },
        {
          "internalType": "uint256",
          "name": "maxTotalSupply",
          "type": "uint256"
        },
        {
          "internalType": "uint256",
          "name": "totalSupply",
          "type": "uint256"
        },
        {
          "internalType": "string",
          "name": "uri",
          "type": "string"
        }
      ],
      "stateMutability": "view",
      "type": "function"
    },
    {
      "inputs": [
        {
          "internalType": "address",
          "name": "from",
          "type": "address"
        },
        {
          "internalType": "address",
          "name": "to",
          "type": "address"
        },
        {
          "internalType": "uint256[]",
          "name": "ids",
          "type": "uint256[]"
        },
        {
          "internalType": "uint256[]",
          "name": "amounts",
          "type": "uint256[]"
        },
        {
          "internalType": "bytes",
          "name": "data",
          "type": "bytes"
        }
      ],
      "name": "safeBatchTransferFrom",
      "outputs": [],
      "stateMutability": "nonpayable",
      "type": "function"
    },
    {
      "inputs": [
        {
          "internalType": "address",
          "name": "from",
          "type": "address"
        },
        {
          "internalType": "address",
          "name": "to",
          "type": "address"
        },
        {
          "internalType": "uint256",
          "name": "id",
          "type": "uint256"
        },
        {
          "internalType": "uint256",
          "name": "amount",
          "type": "uint256"
        },
        {
          "internalType": "bytes",
          "name": "data",
          "type": "bytes"
        }
      ],
      "name": "safeTransferFrom",
      "outputs": [],
      "stateMutability": "nonpayable",
      "type": "function"
    },
    {
      "inputs": [
        {
          "internalType": "address",
          "name": "addr",
          "type": "address"
        }
      ],
      "name": "setAdmin",
      "outputs": [],
      "stateMutability": "nonpayable",
      "type": "function"
    },
    {
      "inputs": [
        {
          "internalType": "address",
          "name": "operator",
          "type": "address"
        },
        {
          "internalType": "bool",
          "name": "approved",
          "type": "bool"
        }
      ],
      "name": "setApprovalForAll",
      "outputs": [],
      "stateMutability": "nonpayable",
      "type": "function"
    },
    {
      "inputs": [
        {
          "internalType": "address",
          "name": "addr",
          "type": "address"
        }
      ],
      "name": "setEnabled",
      "outputs": [],
      "stateMutability": "nonpayable",
      "type": "function"
    },
    {
      "inputs": [
        {
          "internalType": "address",
          "name": "addr",
          "type": "address"
        }
      ],
      "name": "setNone",
      "outputs": [],
      "stateMutability": "nonpayable",
      "type": "function"
    },
    {
      "inputs": [
        {
          "internalType": "uint256",
          "name": "_rewardTierId",
          "type": "uint256"
        },
        {
          "internalType": "string",
          "name": "_newUri",
          "type": "string"
        }
      ],
      "name": "setUri",
      "outputs": [],
      "stateMutability": "nonpayable",
      "type": "function"
    },
    {
      "inputs": [
        {
          "internalType": "bytes4",
          "name": "interfaceId",
          "type": "bytes4"
        }
      ],
      "name": "supportsInterface",
      "outputs": [
        {
          "internalType": "bool",
          "name": "",
          "type": "bool"
        }
      ],
      "stateMutability": "view",
      "type": "function"
    },
    {
      "inputs": [
        {
          "internalType": "address",
          "name": "newOwner",
          "type": "address"
        }
      ],
      "name": "transferOwnership",
      "outputs": [],
      "stateMutability": "nonpayable",
      "type": "function"
    },
    {
      "inputs": [
        {
          "internalType": "uint256",
          "name": "_rewardTierId",
          "type": "uint256"
        }
      ],
      "name": "uri",
      "outputs": [
        {
          "internalType": "string",
          "name": "",
          "type": "string"
        }
      ],
      "stateMutability": "view",
      "type": "function"
    }
  ],
  "bytecode": "0x60806040523480156200001157600080fd5b5060405162004e1138038062004e11833981810160405281019062000037919062000949565b604051806020016040528060008152506200005881620003a060201b60201c565b50620000796200006d620003bc60201b60201c565b620003c460201b60201c565b6200008a85620003c460201b60201c565b825184511480156200009d575081518451145b8015620000ab575080518451145b8015620000b9575081518351145b8015620000c7575080518351145b8015620000d5575080518251145b62000117576040517f08c379a00000000000000000000000000000000000000000000000000000000081526004016200010e9062000aae565b60405180910390fd5b60005b83518110156200038c5760008282815181106200013c576200013b62000ad0565b5b602002602001015151141562000189576040517f08c379a0000000000000000000000000000000000000000000000000000000008152600401620001809062000b4f565b60405180910390fd5b6000848281518110620001a157620001a062000ad0565b5b6020026020010151511415620001ee576040517f08c379a0000000000000000000000000000000000000000000000000000000008152600401620001e59062000bc1565b60405180910390fd5b600085828151811062000206576200020562000ad0565b5b60200260200101511162000251576040517f08c379a0000000000000000000000000000000000000000000000000000000008152600401620002489062000c33565b60405180910390fd5b60056040518060a0016040528086848151811062000274576200027362000ad0565b5b6020026020010151815260200185848151811062000297576200029662000ad0565b5b60200260200101518152602001878481518110620002ba57620002b962000ad0565b5b6020026020010151815260200160008152602001848481518110620002e457620002e362000ad0565b5b602002602001015181525090806001815401808255809150506001900390600052602060002090600502016000909190919091506000820151816000019080519060200190620003369291906200048a565b506020820151816001015560408201518160020155606082015181600301556080820151816004019080519060200190620003739291906200048a565b5050508080620003839062000c84565b9150506200011a565b508351600681905550505050505062000d37565b8060029080519060200190620003b89291906200048a565b5050565b600033905090565b6000600360009054906101000a900473ffffffffffffffffffffffffffffffffffffffff16905081600360006101000a81548173ffffffffffffffffffffffffffffffffffffffff021916908373ffffffffffffffffffffffffffffffffffffffff1602179055508173ffffffffffffffffffffffffffffffffffffffff168173ffffffffffffffffffffffffffffffffffffffff167f8be0079c531659141344cd1fd0a4f28419497f9722a3daafe3b4186f6b6457e060405160405180910390a35050565b828054620004989062000d01565b90600052602060002090601f016020900481019282620004bc576000855562000508565b82601f10620004d757805160ff191683800117855562000508565b8280016001018555821562000508579182015b8281111562000507578251825591602001919060010190620004ea565b5b5090506200051791906200051b565b5090565b5b80821115620005365760008160009055506001016200051c565b5090565b6000604051905090565b600080fd5b600080fd5b600073ffffffffffffffffffffffffffffffffffffffff82169050919050565b60006200057b826200054e565b9050919050565b6200058d816200056e565b81146200059957600080fd5b50565b600081519050620005ad8162000582565b92915050565b600080fd5b6000601f19601f8301169050919050565b7f4e487b7100000000000000000000000000000000000000000000000000000000600052604160045260246000fd5b6200060382620005b8565b810181811067ffffffffffffffff82111715620006255762000624620005c9565b5b80604052505050565b60006200063a6200053a565b9050620006488282620005f8565b919050565b600067ffffffffffffffff8211156200066b576200066a620005c9565b5b602082029050602081019050919050565b600080fd5b6000819050919050565b620006968162000681565b8114620006a257600080fd5b50565b600081519050620006b6816200068b565b92915050565b6000620006d3620006cd846200064d565b6200062e565b90508083825260208201905060208402830185811115620006f957620006f86200067c565b5b835b81811015620007265780620007118882620006a5565b845260208401935050602081019050620006fb565b5050509392505050565b600082601f830112620007485762000747620005b3565b5b81516200075a848260208601620006bc565b91505092915050565b600067ffffffffffffffff821115620007815762000780620005c9565b5b602082029050602081019050919050565b600080fd5b600067ffffffffffffffff821115620007b557620007b4620005c9565b5b620007c082620005b8565b9050602081019050919050565b60005b83811015620007ed578082015181840152602081019050620007d0565b83811115620007fd576000848401525b50505050565b60006200081a620008148462000797565b6200062e565b90508281526020810184848401111562000839576200083862000792565b5b62000846848285620007cd565b509392505050565b600082601f830112620008665762000865620005b3565b5b81516200087884826020860162000803565b91505092915050565b600062000898620008928462000763565b6200062e565b90508083825260208201905060208402830185811115620008be57620008bd6200067c565b5b835b818110156200090c57805167ffffffffffffffff811115620008e757620008e6620005b3565b5b808601620008f689826200084e565b85526020850194505050602081019050620008c0565b5050509392505050565b600082601f8301126200092e576200092d620005b3565b5b81516200094084826020860162000881565b91505092915050565b600080600080600060a0868803121562000968576200096762000544565b5b600062000978888289016200059c565b955050602086015167ffffffffffffffff8111156200099c576200099b62000549565b5b620009aa8882890162000730565b945050604086015167ffffffffffffffff811115620009ce57620009cd62000549565b5b620009dc8882890162000916565b935050606086015167ffffffffffffffff81111562000a0057620009ff62000549565b5b62000a0e8882890162000730565b925050608086015167ffffffffffffffff81111562000a325762000a3162000549565b5b62000a408882890162000916565b9150509295509295909350565b600082825260208201905092915050565b7f696e636f7272656374206c656e67746800000000000000000000000000000000600082015250565b600062000a9660108362000a4d565b915062000aa38262000a5e565b602082019050919050565b6000602082019050818103600083015262000ac98162000a87565b9050919050565b7f4e487b7100000000000000000000000000000000000000000000000000000000600052603260045260246000fd5b7f696e636f72726563742055524900000000000000000000000000000000000000600082015250565b600062000b37600d8362000a4d565b915062000b448262000aff565b602082019050919050565b6000602082019050818103600083015262000b6a8162000b28565b9050919050565b7f696e636f7272656374206e616d65000000000000000000000000000000000000600082015250565b600062000ba9600e8362000a4d565b915062000bb68262000b71565b602082019050919050565b6000602082019050818103600083015262000bdc8162000b9a565b9050919050565b7f696e636f7272656374206d617820737570706c79000000000000000000000000600082015250565b600062000c1b60148362000a4d565b915062000c288262000be3565b602082019050919050565b6000602082019050818103600083015262000c4e8162000c0c565b9050919050565b7f4e487b7100000000000000000000000000000000000000000000000000000000600052601160045260246000fd5b600062000c918262000681565b91507fffffffffffffffffffffffffffffffffffffffffffffffffffffffffffffffff82141562000cc75762000cc662000c55565b5b600182019050919050565b7f4e487b7100000000000000000000000000000000000000000000000000000000600052602260045260246000fd5b6000600282049050600182168062000d1a57607f821691505b6020821081141562000d315762000d3062000cd2565b5b50919050565b6140ca8062000d476000396000f3fe608060405234801561001057600080fd5b50600436106101365760003560e01c8063782f08ae116100b8578063e985e9c51161007c578063e985e9c514610321578063eb54dae114610351578063f242432a14610381578063f2fde38b1461039d578063f94f9b9c146103b9578063ff201114146103d557610136565b8063782f08ae146102935780638c6bfb3b146102af5780638da5cb5b146102cb578063a22cb465146102e9578063d763f3281461030557610136565b806323a36d2b116100ff57806323a36d2b146102055780632eb2c2d6146102215780634e1273f41461023d578063704b6c021461026d578063715018a61461028957610136565b8062fdd58e1461013b57806301ffc9a71461016b5780630aaf70431461019b5780630e89341c146101b757806314fc7389146101e7575b600080fd5b610155600480360381019061015091906125c9565b610409565b6040516101629190612618565b60405180910390f35b6101856004803603810190610180919061268b565b6104d2565b60405161019291906126d3565b60405180910390f35b6101b560048036038101906101b091906126ee565b6105b4565b005b6101d160048036038101906101cc919061271b565b610731565b6040516101de91906127e1565b60405180910390f35b6101ef61082c565b6040516101fc9190612618565b60405180910390f35b61021f600480360381019061021a9190612803565b610832565b005b61023b60048036038101906102369190612a53565b610a67565b005b61025760048036038101906102529190612be5565b610b08565b6040516102649190612d1b565b60405180910390f35b610287600480360381019061028291906126ee565b610c21565b005b610291610d9e565b005b6102ad60048036038101906102a89190612dde565b610db2565b005b6102c960048036038101906102c491906126ee565b610e31565b005b6102d3610fae565b6040516102e09190612e49565b60405180910390f35b61030360048036038101906102fe9190612e90565b610fd8565b005b61031f600480360381019061031a9190612ed0565b610fee565b005b61033b60048036038101906103369190612f10565b6110a1565b60405161034891906126d3565b60405180910390f35b61036b600480360381019061036691906126ee565b611135565b6040516103789190612618565b60405180910390f35b61039b60048036038101906103969190612f50565b6111c3565b005b6103b760048036038101906103b291906126ee565b611264565b005b6103d360048036038101906103ce9190612fe7565b6112e8565b005b6103ef60048036038101906103ea919061271b565b611439565b604051610400959493929190613086565b60405180910390f35b60008073ffffffffffffffffffffffffffffffffffffffff168373ffffffffffffffffffffffffffffffffffffffff16141561047a576040517f08c379a000000000000000000000000000000000000000000000000000000000815260040161047190613159565b60405180910390fd5b60008083815260200190815260200160002060008473ffffffffffffffffffffffffffffffffffffffff1673ffffffffffffffffffffffffffffffffffffffff16815260200190815260200160002054905092915050565b60007fd9b67a26000000000000000000000000000000000000000000000000000000007bffffffffffffffffffffffffffffffffffffffffffffffffffffffff1916827bffffffffffffffffffffffffffffffffffffffffffffffffffffffff1916148061059d57507f0e89341c000000000000000000000000000000000000000000000000000000007bffffffffffffffffffffffffffffffffffffffffffffffffffffffff1916827bffffffffffffffffffffffffffffffffffffffffffffffffffffffff1916145b806105ad57506105ac8261158f565b5b9050919050565b6002600460003373ffffffffffffffffffffffffffffffffffffffff1673ffffffffffffffffffffffffffffffffffffffff1681526020019081526020016000205414806106345750610605610fae565b73ffffffffffffffffffffffffffffffffffffffff163373ffffffffffffffffffffffffffffffffffffffff16145b610673576040517f08c379a000000000000000000000000000000000000000000000000000000000815260040161066a906131eb565b60405180910390fd5b61067b610fae565b73ffffffffffffffffffffffffffffffffffffffff168173ffffffffffffffffffffffffffffffffffffffff1614156106e9576040517f08c379a00000000000000000000000000000000000000000000000000000000081526004016106e090613257565b60405180910390fd5b6001600460008373ffffffffffffffffffffffffffffffffffffffff1673ffffffffffffffffffffffffffffffffffffffff1681526020019081526020016000208190555050565b60606006548210610777576040517f08c379a000000000000000000000000000000000000000000000000000000000815260040161076e906132c3565b60405180910390fd5b6005828154811061078b5761078a6132e3565b5b906000526020600020906005020160040180546107a790613341565b80601f01602080910402602001604051908101604052809291908181526020018280546107d390613341565b80156108205780601f106107f557610100808354040283529160200191610820565b820191906000526020600020905b81548152906001019060200180831161080357829003601f168201915b50505050509050919050565b60065481565b6001600460003373ffffffffffffffffffffffffffffffffffffffff1673ffffffffffffffffffffffffffffffffffffffff1681526020019081526020016000205414806108bf57506002600460003373ffffffffffffffffffffffffffffffffffffffff1673ffffffffffffffffffffffffffffffffffffffff16815260200190815260200160002054145b806108fc57506108cd610fae565b73ffffffffffffffffffffffffffffffffffffffff163373ffffffffffffffffffffffffffffffffffffffff16145b61093b576040517f08c379a0000000000000000000000000000000000000000000000000000000008152600401610932906133e5565b60405180910390fd5b600654821061097f576040517f08c379a000000000000000000000000000000000000000000000000000000000815260040161097690613451565b60405180910390fd5b8060058381548110610994576109936132e3565b5b906000526020600020906005020160030160008282546109b491906134a0565b92505081905550600582815481106109cf576109ce6132e3565b5b906000526020600020906005020160020154600583815481106109f5576109f46132e3565b5b90600052602060002090600502016003015410610a47576040517f08c379a0000000000000000000000000000000000000000000000000000000008152600401610a3e90613542565b60405180910390fd5b610a62838383604051806020016040528060008152506115f9565b505050565b610a6f6117aa565b73ffffffffffffffffffffffffffffffffffffffff168573ffffffffffffffffffffffffffffffffffffffff161480610ab55750610ab485610aaf6117aa565b6110a1565b5b610af4576040517f08c379a0000000000000000000000000000000000000000000000000000000008152600401610aeb906135d4565b60405180910390fd5b610b0185858585856117b2565b5050505050565b60608151835114610b4e576040517f08c379a0000000000000000000000000000000000000000000000000000000008152600401610b4590613666565b60405180910390fd5b6000835167ffffffffffffffff811115610b6b57610b6a61285b565b5b604051908082528060200260200182016040528015610b995781602001602082028036833780820191505090505b50905060005b8451811015610c1657610be6858281518110610bbe57610bbd6132e3565b5b6020026020010151858381518110610bd957610bd86132e3565b5b6020026020010151610409565b828281518110610bf957610bf86132e3565b5b60200260200101818152505080610c0f90613686565b9050610b9f565b508091505092915050565b6002600460003373ffffffffffffffffffffffffffffffffffffffff1673ffffffffffffffffffffffffffffffffffffffff168152602001908152602001600020541480610ca15750610c72610fae565b73ffffffffffffffffffffffffffffffffffffffff163373ffffffffffffffffffffffffffffffffffffffff16145b610ce0576040517f08c379a0000000000000000000000000000000000000000000000000000000008152600401610cd790613741565b60405180910390fd5b610ce8610fae565b73ffffffffffffffffffffffffffffffffffffffff168173ffffffffffffffffffffffffffffffffffffffff161415610d56576040517f08c379a0000000000000000000000000000000000000000000000000000000008152600401610d4d90613257565b60405180910390fd5b6002600460008373ffffffffffffffffffffffffffffffffffffffff1673ffffffffffffffffffffffffffffffffffffffff1681526020019081526020016000208190555050565b610da6611ad4565b610db06000611b52565b565b610dba611ad4565b8060058381548110610dcf57610dce6132e3565b5b90600052602060002090600502016004019080519060200190610df392919061247e565b507f6d10c59cedadc720a2e20f54f0a461ef82bd35f762430e32ef049dd6d7fc27308282604051610e25929190613761565b60405180910390a15050565b6002600460003373ffffffffffffffffffffffffffffffffffffffff1673ffffffffffffffffffffffffffffffffffffffff168152602001908152602001600020541480610eb15750610e82610fae565b73ffffffffffffffffffffffffffffffffffffffff163373ffffffffffffffffffffffffffffffffffffffff16145b610ef0576040517f08c379a0000000000000000000000000000000000000000000000000000000008152600401610ee7906137dd565b60405180910390fd5b610ef8610fae565b73ffffffffffffffffffffffffffffffffffffffff168173ffffffffffffffffffffffffffffffffffffffff161415610f66576040517f08c379a0000000000000000000000000000000000000000000000000000000008152600401610f5d90613257565b60405180910390fd5b6000600460008373ffffffffffffffffffffffffffffffffffffffff1673ffffffffffffffffffffffffffffffffffffffff1681526020019081526020016000208190555050565b6000600360009054906101000a900473ffffffffffffffffffffffffffffffffffffffff16905090565b610fea610fe36117aa565b8383611c18565b5050565b610ff6611ad4565b600654821061103a576040517f08c379a000000000000000000000000000000000000000000000000000000000815260040161103190613849565b60405180910390fd5b806005838154811061104f5761104e6132e3565b5b9060005260206000209060050201600101819055507f751daf2a0cea3168c0b10ba42e739eb23cb50dc2a6890c3f53449e1e281042458282604051611095929190613869565b60405180910390a15050565b6000600160008473ffffffffffffffffffffffffffffffffffffffff1673ffffffffffffffffffffffffffffffffffffffff16815260200190815260200160002060008373ffffffffffffffffffffffffffffffffffffffff1673ffffffffffffffffffffffffffffffffffffffff16815260200190815260200160002060009054906101000a900460ff16905092915050565b600061113f610fae565b73ffffffffffffffffffffffffffffffffffffffff168273ffffffffffffffffffffffffffffffffffffffff16141561117b57600290506111be565b600460008373ffffffffffffffffffffffffffffffffffffffff1673ffffffffffffffffffffffffffffffffffffffff1681526020019081526020016000205490505b919050565b6111cb6117aa565b73ffffffffffffffffffffffffffffffffffffffff168573ffffffffffffffffffffffffffffffffffffffff16148061121157506112108561120b6117aa565b6110a1565b5b611250576040517f08c379a0000000000000000000000000000000000000000000000000000000008152600401611247906135d4565b60405180910390fd5b61125d8585858585611d85565b5050505050565b61126c611ad4565b600073ffffffffffffffffffffffffffffffffffffffff168173ffffffffffffffffffffffffffffffffffffffff1614156112dc576040517f08c379a00000000000000000000000000000000000000000000000000000000081526004016112d390613904565b60405180910390fd5b6112e581611b52565b50565b6112f0611ad4565b60008211611333576040517f08c379a000000000000000000000000000000000000000000000000000000000815260040161132a90613970565b60405180910390fd5b60056040518060a001604052808681526020018581526020018481526020016000815260200183815250908060018154018082558091505060019003906000526020600020906005020160009091909190915060008201518160000190805190602001906113a292919061247e565b5060208201518160010155604082015181600201556060820151816003015560808201518160040190805190602001906113dd92919061247e565b505050600660008154809291906113f390613686565b91905055507f645b27187b9810e68ebe0d260292c81e5cb1d18340525f92e32f227faa63abb984848360405161142b93929190613990565b60405180910390a150505050565b6005818154811061144957600080fd5b906000526020600020906005020160009150905080600001805461146c90613341565b80601f016020809104026020016040519081016040528092919081815260200182805461149890613341565b80156114e55780601f106114ba576101008083540402835291602001916114e5565b820191906000526020600020905b8154815290600101906020018083116114c857829003601f168201915b50505050509080600101549080600201549080600301549080600401805461150c90613341565b80601f016020809104026020016040519081016040528092919081815260200182805461153890613341565b80156115855780601f1061155a57610100808354040283529160200191611585565b820191906000526020600020905b81548152906001019060200180831161156857829003601f168201915b5050505050905085565b60007f01ffc9a7000000000000000000000000000000000000000000000000000000007bffffffffffffffffffffffffffffffffffffffffffffffffffffffff1916827bffffffffffffffffffffffffffffffffffffffffffffffffffffffff1916149050919050565b600073ffffffffffffffffffffffffffffffffffffffff168473ffffffffffffffffffffffffffffffffffffffff161415611669576040517f08c379a000000000000000000000000000000000000000000000000000000000815260040161166090613a47565b60405180910390fd5b60006116736117aa565b9050600061168085612021565b9050600061168d85612021565b905061169e8360008985858961209b565b8460008088815260200190815260200160002060008973ffffffffffffffffffffffffffffffffffffffff1673ffffffffffffffffffffffffffffffffffffffff16815260200190815260200160002060008282546116fd91906134a0565b925050819055508673ffffffffffffffffffffffffffffffffffffffff16600073ffffffffffffffffffffffffffffffffffffffff168473ffffffffffffffffffffffffffffffffffffffff167fc3d58168c5ae7397731d063d5bbf3d657854427343f4c083240f7aacaa2d0f62898960405161177b929190613869565b60405180910390a4611792836000898585896120a3565b6117a1836000898989896120ab565b50505050505050565b600033905090565b81518351146117f6576040517f08c379a00000000000000000000000000000000000000000000000000000000081526004016117ed90613ad9565b60405180910390fd5b600073ffffffffffffffffffffffffffffffffffffffff168473ffffffffffffffffffffffffffffffffffffffff161415611866576040517f08c379a000000000000000000000000000000000000000000000000000000000815260040161185d90613b6b565b60405180910390fd5b60006118706117aa565b905061188081878787878761209b565b60005b8451811015611a315760008582815181106118a1576118a06132e3565b5b6020026020010151905060008583815181106118c0576118bf6132e3565b5b60200260200101519050600080600084815260200190815260200160002060008b73ffffffffffffffffffffffffffffffffffffffff1673ffffffffffffffffffffffffffffffffffffffff16815260200190815260200160002054905081811015611961576040517f08c379a000000000000000000000000000000000000000000000000000000000815260040161195890613bfd565b60405180910390fd5b81810360008085815260200190815260200160002060008c73ffffffffffffffffffffffffffffffffffffffff1673ffffffffffffffffffffffffffffffffffffffff168152602001908152602001600020819055508160008085815260200190815260200160002060008b73ffffffffffffffffffffffffffffffffffffffff1673ffffffffffffffffffffffffffffffffffffffff1681526020019081526020016000206000828254611a1691906134a0565b9250508190555050505080611a2a90613686565b9050611883565b508473ffffffffffffffffffffffffffffffffffffffff168673ffffffffffffffffffffffffffffffffffffffff168273ffffffffffffffffffffffffffffffffffffffff167f4a39dc06d4c0dbc64b70af90fd698a233a518aa5d07e595d983b8c0526c8f7fb8787604051611aa8929190613c1d565b60405180910390a4611abe8187878787876120a3565b611acc818787878787612283565b505050505050565b611adc6117aa565b73ffffffffffffffffffffffffffffffffffffffff16611afa610fae565b73ffffffffffffffffffffffffffffffffffffffff1614611b50576040517f08c379a0000000000000000000000000000000000000000000000000000000008152600401611b4790613ca0565b60405180910390fd5b565b6000600360009054906101000a900473ffffffffffffffffffffffffffffffffffffffff16905081600360006101000a81548173ffffffffffffffffffffffffffffffffffffffff021916908373ffffffffffffffffffffffffffffffffffffffff1602179055508173ffffffffffffffffffffffffffffffffffffffff168173ffffffffffffffffffffffffffffffffffffffff167f8be0079c531659141344cd1fd0a4f28419497f9722a3daafe3b4186f6b6457e060405160405180910390a35050565b8173ffffffffffffffffffffffffffffffffffffffff168373ffffffffffffffffffffffffffffffffffffffff161415611c87576040517f08c379a0000000000000000000000000000000000000000000000000000000008152600401611c7e90613d32565b60405180910390fd5b80600160008573ffffffffffffffffffffffffffffffffffffffff1673ffffffffffffffffffffffffffffffffffffffff16815260200190815260200160002060008473ffffffffffffffffffffffffffffffffffffffff1673ffffffffffffffffffffffffffffffffffffffff16815260200190815260200160002060006101000a81548160ff0219169083151502179055508173ffffffffffffffffffffffffffffffffffffffff168373ffffffffffffffffffffffffffffffffffffffff167f17307eab39ab6107e8899845ad3d59bd9653f200f220920489ca2b5937696c3183604051611d7891906126d3565b60405180910390a3505050565b600073ffffffffffffffffffffffffffffffffffffffff168473ffffffffffffffffffffffffffffffffffffffff161415611df5576040517f08c379a0000000000000000000000000000000000000000000000000000000008152600401611dec90613b6b565b60405180910390fd5b6000611dff6117aa565b90506000611e0c85612021565b90506000611e1985612021565b9050611e2983898985858961209b565b600080600088815260200190815260200160002060008a73ffffffffffffffffffffffffffffffffffffffff1673ffffffffffffffffffffffffffffffffffffffff16815260200190815260200160002054905085811015611ec0576040517f08c379a0000000000000000000000000000000000000000000000000000000008152600401611eb790613bfd565b60405180910390fd5b85810360008089815260200190815260200160002060008b73ffffffffffffffffffffffffffffffffffffffff1673ffffffffffffffffffffffffffffffffffffffff168152602001908152602001600020819055508560008089815260200190815260200160002060008a73ffffffffffffffffffffffffffffffffffffffff1673ffffffffffffffffffffffffffffffffffffffff1681526020019081526020016000206000828254611f7591906134a0565b925050819055508773ffffffffffffffffffffffffffffffffffffffff168973ffffffffffffffffffffffffffffffffffffffff168573ffffffffffffffffffffffffffffffffffffffff167fc3d58168c5ae7397731d063d5bbf3d657854427343f4c083240f7aacaa2d0f628a8a604051611ff2929190613869565b60405180910390a4612008848a8a86868a6120a3565b612016848a8a8a8a8a6120ab565b505050505050505050565b60606000600167ffffffffffffffff8111156120405761203f61285b565b5b60405190808252806020026020018201604052801561206e5781602001602082028036833780820191505090505b5090508281600081518110612086576120856132e3565b5b60200260200101818152505080915050919050565b505050505050565b505050505050565b6120ca8473ffffffffffffffffffffffffffffffffffffffff1661245b565b1561227b578373ffffffffffffffffffffffffffffffffffffffff1663f23a6e6187878686866040518663ffffffff1660e01b8152600401612110959493929190613da7565b6020604051808303816000875af192505050801561214c57506040513d601f19601f820116820180604052508101906121499190613e16565b60015b6121f257612158613e50565b806308c379a014156121b5575061216d613e72565b8061217857506121b7565b806040517f08c379a00000000000000000000000000000000000000000000000000000000081526004016121ac91906127e1565b60405180910390fd5b505b6040517f08c379a00000000000000000000000000000000000000000000000000000000081526004016121e990613f7a565b60405180910390fd5b63f23a6e6160e01b7bffffffffffffffffffffffffffffffffffffffffffffffffffffffff1916817bffffffffffffffffffffffffffffffffffffffffffffffffffffffff191614612279576040517f08c379a00000000000000000000000000000000000000000000000000000000081526004016122709061400c565b60405180910390fd5b505b505050505050565b6122a28473ffffffffffffffffffffffffffffffffffffffff1661245b565b15612453578373ffffffffffffffffffffffffffffffffffffffff1663bc197c8187878686866040518663ffffffff1660e01b81526004016122e895949392919061402c565b6020604051808303816000875af192505050801561232457506040513d601f19601f820116820180604052508101906123219190613e16565b60015b6123ca57612330613e50565b806308c379a0141561238d5750612345613e72565b80612350575061238f565b806040517f08c379a000000000000000000000000000000000000000000000000000000000815260040161238491906127e1565b60405180910390fd5b505b6040517f08c379a00000000000000000000000000000000000000000000000000000000081526004016123c190613f7a565b60405180910390fd5b63bc197c8160e01b7bffffffffffffffffffffffffffffffffffffffffffffffffffffffff1916817bffffffffffffffffffffffffffffffffffffffffffffffffffffffff191614612451576040517f08c379a00000000000000000000000000000000000000000000000000000000081526004016124489061400c565b60405180910390fd5b505b505050505050565b6000808273ffffffffffffffffffffffffffffffffffffffff163b119050919050565b82805461248a90613341565b90600052602060002090601f0160209004810192826124ac57600085556124f3565b82601f106124c557805160ff19168380011785556124f3565b828001600101855582156124f3579182015b828111156124f25782518255916020019190600101906124d7565b5b5090506125009190612504565b5090565b5b8082111561251d576000816000905550600101612505565b5090565b6000604051905090565b600080fd5b600080fd5b600073ffffffffffffffffffffffffffffffffffffffff82169050919050565b600061256082612535565b9050919050565b61257081612555565b811461257b57600080fd5b50565b60008135905061258d81612567565b92915050565b6000819050919050565b6125a681612593565b81146125b157600080fd5b50565b6000813590506125c38161259d565b92915050565b600080604083850312156125e0576125df61252b565b5b60006125ee8582860161257e565b92505060206125ff858286016125b4565b9150509250929050565b61261281612593565b82525050565b600060208201905061262d6000830184612609565b92915050565b60007fffffffff0000000000000000000000000000000000000000000000000000000082169050919050565b61266881612633565b811461267357600080fd5b50565b6000813590506126858161265f565b92915050565b6000602082840312156126a1576126a061252b565b5b60006126af84828501612676565b91505092915050565b60008115159050919050565b6126cd816126b8565b82525050565b60006020820190506126e860008301846126c4565b92915050565b6000602082840312156127045761270361252b565b5b60006127128482850161257e565b91505092915050565b6000602082840312156127315761273061252b565b5b600061273f848285016125b4565b91505092915050565b600081519050919050565b600082825260208201905092915050565b60005b83811015612782578082015181840152602081019050612767565b83811115612791576000848401525b50505050565b6000601f19601f8301169050919050565b60006127b382612748565b6127bd8185612753565b93506127cd818560208601612764565b6127d681612797565b840191505092915050565b600060208201905081810360008301526127fb81846127a8565b905092915050565b60008060006060848603121561281c5761281b61252b565b5b600061282a8682870161257e565b935050602061283b868287016125b4565b925050604061284c868287016125b4565b9150509250925092565b600080fd5b7f4e487b7100000000000000000000000000000000000000000000000000000000600052604160045260246000fd5b61289382612797565b810181811067ffffffffffffffff821117156128b2576128b161285b565b5b80604052505050565b60006128c5612521565b90506128d1828261288a565b919050565b600067ffffffffffffffff8211156128f1576128f061285b565b5b602082029050602081019050919050565b600080fd5b600061291a612915846128d6565b6128bb565b9050808382526020820190506020840283018581111561293d5761293c612902565b5b835b81811015612966578061295288826125b4565b84526020840193505060208101905061293f565b5050509392505050565b600082601f83011261298557612984612856565b5b8135612995848260208601612907565b91505092915050565b600080fd5b600067ffffffffffffffff8211156129be576129bd61285b565b5b6129c782612797565b9050602081019050919050565b82818337600083830152505050565b60006129f66129f1846129a3565b6128bb565b905082815260208101848484011115612a1257612a1161299e565b5b612a1d8482856129d4565b509392505050565b600082601f830112612a3a57612a39612856565b5b8135612a4a8482602086016129e3565b91505092915050565b600080600080600060a08688031215612a6f57612a6e61252b565b5b6000612a7d8882890161257e565b9550506020612a8e8882890161257e565b945050604086013567ffffffffffffffff811115612aaf57612aae612530565b5b612abb88828901612970565b935050606086013567ffffffffffffffff811115612adc57612adb612530565b5b612ae888828901612970565b925050608086013567ffffffffffffffff811115612b0957612b08612530565b5b612b1588828901612a25565b9150509295509295909350565b600067ffffffffffffffff821115612b3d57612b3c61285b565b5b602082029050602081019050919050565b6000612b61612b5c84612b22565b6128bb565b90508083825260208201905060208402830185811115612b8457612b83612902565b5b835b81811015612bad5780612b99888261257e565b845260208401935050602081019050612b86565b5050509392505050565b600082601f830112612bcc57612bcb612856565b5b8135612bdc848260208601612b4e565b91505092915050565b60008060408385031215612bfc57612bfb61252b565b5b600083013567ffffffffffffffff811115612c1a57612c19612530565b5b612c2685828601612bb7565b925050602083013567ffffffffffffffff811115612c4757612c46612530565b5b612c5385828601612970565b9150509250929050565b600081519050919050565b600082825260208201905092915050565b6000819050602082019050919050565b612c9281612593565b82525050565b6000612ca48383612c89565b60208301905092915050565b6000602082019050919050565b6000612cc882612c5d565b612cd28185612c68565b9350612cdd83612c79565b8060005b83811015612d0e578151612cf58882612c98565b9750612d0083612cb0565b925050600181019050612ce1565b5085935050505092915050565b60006020820190508181036000830152612d358184612cbd565b905092915050565b600067ffffffffffffffff821115612d5857612d5761285b565b5b612d6182612797565b9050602081019050919050565b6000612d81612d7c84612d3d565b6128bb565b905082815260208101848484011115612d9d57612d9c61299e565b5b612da88482856129d4565b509392505050565b600082601f830112612dc557612dc4612856565b5b8135612dd5848260208601612d6e565b91505092915050565b60008060408385031215612df557612df461252b565b5b6000612e03858286016125b4565b925050602083013567ffffffffffffffff811115612e2457612e23612530565b5b612e3085828601612db0565b9150509250929050565b612e4381612555565b82525050565b6000602082019050612e5e6000830184612e3a565b92915050565b612e6d816126b8565b8114612e7857600080fd5b50565b600081359050612e8a81612e64565b92915050565b60008060408385031215612ea757612ea661252b565b5b6000612eb58582860161257e565b9250506020612ec685828601612e7b565b9150509250929050565b60008060408385031215612ee757612ee661252b565b5b6000612ef5858286016125b4565b9250506020612f06858286016125b4565b9150509250929050565b60008060408385031215612f2757612f2661252b565b5b6000612f358582860161257e565b9250506020612f468582860161257e565b9150509250929050565b600080600080600060a08688031215612f6c57612f6b61252b565b5b6000612f7a8882890161257e565b9550506020612f8b8882890161257e565b9450506040612f9c888289016125b4565b9350506060612fad888289016125b4565b925050608086013567ffffffffffffffff811115612fce57612fcd612530565b5b612fda88828901612a25565b9150509295509295909350565b600080600080608085870312156130015761300061252b565b5b600085013567ffffffffffffffff81111561301f5761301e612530565b5b61302b87828801612db0565b945050602061303c878288016125b4565b935050604061304d878288016125b4565b925050606085013567ffffffffffffffff81111561306e5761306d612530565b5b61307a87828801612db0565b91505092959194509250565b600060a08201905081810360008301526130a081886127a8565b90506130af6020830187612609565b6130bc6040830186612609565b6130c96060830185612609565b81810360808301526130db81846127a8565b90509695505050505050565b7f455243313135353a2061646472657373207a65726f206973206e6f742061207660008201527f616c6964206f776e657200000000000000000000000000000000000000000000602082015250565b6000613143602a83612753565b915061314e826130e7565b604082019050919050565b6000602082019050818103600083015261317281613136565b9050919050565b7f4f6e6c7920616e2061646d696e2063616e20656e61626c652061206d696e746560008201527f7200000000000000000000000000000000000000000000000000000000000000602082015250565b60006131d5602183612753565b91506131e082613179565b604082019050919050565b60006020820190508181036000830152613204816131c8565b9050919050565b7f526f6c6520666f7220746865206f776e65722063616e6e6f7420626520736574600082015250565b6000613241602083612753565b915061324c8261320b565b602082019050919050565b6000602082019050818103600083015261327081613234565b9050919050565b7f696e636f727265637420636f6c6c656374696f6e204944000000000000000000600082015250565b60006132ad601783612753565b91506132b882613277565b602082019050919050565b600060208201905081810360008301526132dc816132a0565b9050919050565b7f4e487b7100000000000000000000000000000000000000000000000000000000600052603260045260246000fd5b7f4e487b7100000000000000000000000000000000000000000000000000000000600052602260045260246000fd5b6000600282049050600182168061335957607f821691505b6020821081141561336d5761336c613312565b5b50919050565b7f4f6e6c7920616c6c6f776564206d696e746572732063616e206d696e7420746f60008201527f6b656e7300000000000000000000000000000000000000000000000000000000602082015250565b60006133cf602483612753565b91506133da82613373565b604082019050919050565b600060208201905081810360008301526133fe816133c2565b9050919050565b7f696e636f72726563742049440000000000000000000000000000000000000000600082015250565b600061343b600c83612753565b915061344682613405565b602082019050919050565b6000602082019050818103600083015261346a8161342e565b9050919050565b7f4e487b7100000000000000000000000000000000000000000000000000000000600052601160045260246000fd5b60006134ab82612593565b91506134b683612593565b9250827fffffffffffffffffffffffffffffffffffffffffffffffffffffffffffffffff038211156134eb576134ea613471565b5b828201905092915050565b7f6d617820737570706c7920657863656564656400000000000000000000000000600082015250565b600061352c601383612753565b9150613537826134f6565b602082019050919050565b6000602082019050818103600083015261355b8161351f565b9050919050565b7f455243313135353a2063616c6c6572206973206e6f7420746f6b656e206f776e60008201527f6572206e6f7220617070726f7665640000000000000000000000000000000000602082015250565b60006135be602f83612753565b91506135c982613562565b604082019050919050565b600060208201905081810360008301526135ed816135b1565b9050919050565b7f455243313135353a206163636f756e747320616e6420696473206c656e67746860008201527f206d69736d617463680000000000000000000000000000000000000000000000602082015250565b6000613650602983612753565b915061365b826135f4565b604082019050919050565b6000602082019050818103600083015261367f81613643565b9050919050565b600061369182612593565b91507fffffffffffffffffffffffffffffffffffffffffffffffffffffffffffffffff8214156136c4576136c3613471565b5b600182019050919050565b7f4f6e6c7920616e2061646d696e2063616e2073657420616e2061646d696e207260008201527f6f6c650000000000000000000000000000000000000000000000000000000000602082015250565b600061372b602383612753565b9150613736826136cf565b604082019050919050565b6000602082019050818103600083015261375a8161371e565b9050919050565b60006040820190506137766000830185612609565b818103602083015261378881846127a8565b90509392505050565b7f4f6e6c7920616e2061646d696e2063616e2073657420726f6c65730000000000600082015250565b60006137c7601b83612753565b91506137d282613791565b602082019050919050565b600060208201905081810360008301526137f6816137ba565b9050919050565b7f696e636f72726563742074696572496400000000000000000000000000000000600082015250565b6000613833601083612753565b915061383e826137fd565b602082019050919050565b6000602082019050818103600083015261386281613826565b9050919050565b600060408201905061387e6000830185612609565b61388b6020830184612609565b9392505050565b7f4f776e61626c653a206e6577206f776e657220697320746865207a65726f206160008201527f6464726573730000000000000000000000000000000000000000000000000000602082015250565b60006138ee602683612753565b91506138f982613892565b604082019050919050565b6000602082019050818103600083015261391d816138e1565b9050919050565b7f696e636f7272656374206d617820737570706c79000000000000000000000000600082015250565b600061395a601483612753565b915061396582613924565b602082019050919050565b600060208201905081810360008301526139898161394d565b9050919050565b600060608201905081810360008301526139aa81866127a8565b90506139b96020830185612609565b81810360408301526139cb81846127a8565b9050949350505050565b7f455243313135353a206d696e7420746f20746865207a65726f2061646472657360008201527f7300000000000000000000000000000000000000000000000000000000000000602082015250565b6000613a31602183612753565b9150613a3c826139d5565b604082019050919050565b60006020820190508181036000830152613a6081613a24565b9050919050565b7f455243313135353a2069647320616e6420616d6f756e7473206c656e6774682060008201527f6d69736d61746368000000000000000000000000000000000000000000000000602082015250565b6000613ac3602883612753565b9150613ace82613a67565b604082019050919050565b60006020820190508181036000830152613af281613ab6565b9050919050565b7f455243313135353a207472616e7366657220746f20746865207a65726f20616460008201527f6472657373000000000000000000000000000000000000000000000000000000602082015250565b6000613b55602583612753565b9150613b6082613af9565b604082019050919050565b60006020820190508181036000830152613b8481613b48565b9050919050565b7f455243313135353a20696e73756666696369656e742062616c616e636520666f60008201527f72207472616e7366657200000000000000000000000000000000000000000000602082015250565b6000613be7602a83612753565b9150613bf282613b8b565b604082019050919050565b60006020820190508181036000830152613c1681613bda565b9050919050565b60006040820190508181036000830152613c378185612cbd565b90508181036020830152613c4b8184612cbd565b90509392505050565b7f4f776e61626c653a2063616c6c6572206973206e6f7420746865206f776e6572600082015250565b6000613c8a602083612753565b9150613c9582613c54565b602082019050919050565b60006020820190508181036000830152613cb981613c7d565b9050919050565b7f455243313135353a2073657474696e6720617070726f76616c2073746174757360008201527f20666f722073656c660000000000000000000000000000000000000000000000602082015250565b6000613d1c602983612753565b9150613d2782613cc0565b604082019050919050565b60006020820190508181036000830152613d4b81613d0f565b9050919050565b600081519050919050565b600082825260208201905092915050565b6000613d7982613d52565b613d838185613d5d565b9350613d93818560208601612764565b613d9c81612797565b840191505092915050565b600060a082019050613dbc6000830188612e3a565b613dc96020830187612e3a565b613dd66040830186612609565b613de36060830185612609565b8181036080830152613df58184613d6e565b90509695505050505050565b600081519050613e108161265f565b92915050565b600060208284031215613e2c57613e2b61252b565b5b6000613e3a84828501613e01565b91505092915050565b60008160e01c9050919050565b600060033d1115613e6f5760046000803e613e6c600051613e43565b90505b90565b600060443d1015613e8257613f05565b613e8a612521565b60043d036004823e80513d602482011167ffffffffffffffff82111715613eb2575050613f05565b808201805167ffffffffffffffff811115613ed05750505050613f05565b80602083010160043d038501811115613eed575050505050613f05565b613efc8260200185018661288a565b82955050505050505b90565b7f455243313135353a207472616e7366657220746f206e6f6e204552433131353560008201527f526563656976657220696d706c656d656e746572000000000000000000000000602082015250565b6000613f64603483612753565b9150613f6f82613f08565b604082019050919050565b60006020820190508181036000830152613f9381613f57565b9050919050565b7f455243313135353a204552433131353552656365697665722072656a6563746560008201527f6420746f6b656e73000000000000000000000000000000000000000000000000602082015250565b6000613ff6602883612753565b915061400182613f9a565b604082019050919050565b6000602082019050818103600083015261402581613fe9565b9050919050565b600060a0820190506140416000830188612e3a565b61404e6020830187612e3a565b81810360408301526140608186612cbd565b905081810360608301526140748185612cbd565b905081810360808301526140888184613d6e565b9050969550505050505056fea2646970667358221220c7d11058e49341747752cd47b126dafe390d35e4146b4fbb69f977b093f3587e64736f6c634300080b0033",
  "linkReferences": {},
  "deployedLinkReferences": {}
}